:020000040800F2
:10300000380D002045310008818000082178000833
:10301000B17D0008D94400086FB700080000000027
:103020000000000000000000000000003F940008C5
:1030300005690008000000004985000835A7000860
:103040005F3100085F3100085F310008B189000876
:103050005F3100085F3100085F3100085F31000810
:10306000917100085F310008AD7100081963000814
:103070005F3100085F3100085F3100085F310008F0
:103080005F3100085F310008E53A00085F31000851
:103090008DB600085F3100085F310008AF7100088D
:1030A0005F3100085F3100085F3100085F310008C0
:1030B0005F3100085F3100085F3100085F310008B0
:1030C0005F3100085F3100085F3100085F310008A0
:1030D0005F3100085F31000879B200085F310008F5
:1030E000457100085F310008A5B400085F31000891
:1030F0005F3100085F3100085F3100085F31000870
:103100005F3100085F3100085F3100085F3100085F
:103110005F3100085F3100085F3100085F3100084F
:103120005F3100085F3100085F3100085F3100083F
:10313000DFF80CD000F082FC004800471DCE0008EC
:10314000380D00200648804706480047FEE7FEE7A6
:10315000FEE7FEE7FEE7FEE7FEE7FEE7FEE7FEE747
:1031600091A70008313100080649074A0868504312
:1031700043F2390210440860400870470149086072
:1031800070470000B40200206D4EC64140EA0103C2
:103190009B0703D009E008C9121F08C0042AFAD20D
:1031A00003E011F8013B00F8013B521EF9D27047D1
:1031B000421C10F8011B0029FBD1801A7047F0B4A3
:1031C00080EA0102D40F4200B2EB410F02D2024664
:1031D000084611464A0042D0C30DDDB2C1F3C752C2
:1031E000AD1A202D35DAC1F3160141F4000204B105
:1031F0005242C5F1200602FA06F12A411044B3EB0F
:10320000D05F23D0C4B1012DA0EBC35009DCF0BCCA
:103210004FF0004202EAC352DBB200F5000000F0BA
:1032200052BB400000F1807000EBC350A0F18070F1
:1032300040EAD170490009E0490841EAC071A0EBB9
:10324000C35000F50000400800EBC350F0BC00F094
:1032500031BB6142012202EB4101001BF6E7F0BCE9
:10326000704781F00041AAE780F00040A7E780EABC
:10327000010210B502F00043400022D04A001FD0E6
:10328000010E01EB1261C0F35600C2F3560240F486
:10329000000042F40002A0FB022000047F39140465
:1032A00000D0401C50EA124001D44000491EC2B276
:1032B0000C0604EBD010401C4008802A02D003E02A
:1032C000002010BD20F00100002900DA0020184382
:1032D00010BD30B480EA010202F0004530F0004237
:1032E00021F0004013D090B1C30DD40DC2F31601EC
:1032F000C0F31600E41A41F4000140F400027D34EA
:10330000914201D3641C00E04900002C02DA30BC79
:10331000002070474FF400000023914201D3891A26
:10332000034340084FEA4101F7D151B1914202D124
:103330004FF0004105E002D24FF0010101E06FF0D3
:10334000010103EBC450284430BC00F0B3BA420082
:1033500005D0C0F3C7525242914201DC00207047B1
:1033600000EBC15070472DE9FE4F804681EA030013
:10337000C00F0C46009021F0004123F00045B8EB4F
:103380000200A94105D24046214690461C460B4604
:10339000024623F00040104347D0270DC7F30A0030
:1033A000C3F30A510290401A019040286BDAC3F32C
:1033B000130040F4801B0098924620B10023D2EB0A
:1033C000030A63EB0B0B01985946C0F140025046CB
:1033D00000F03FFA06460D4650465946019A00F065
:1033E00057FA10EB08006141002487EA115284EA81
:1033F000E7731A4340D0009A62B3019A012A4FEA58
:10340000075215DC001B61EB02014FF0004202EA9B
:103410000752CDE90042001C41F5801132462B468F
:1034200000F08EFA03B0BDE8F08F40462146F9E780
:10343000001B61EB0201001C41F5801300185B4189
:103440002018A2F5001747EB030140EAD570B61922
:103450006D4111E06D084FEA360645EAC0754FEA46
:103460000752001B61EB0201001C41F58011490865
:103470004FEA30000019514132462B4603B0BDE8F7
:10348000F04F00F04EBA0098012240000023D0EB2C
:10349000020263EBE073009821464FEAE074B8EB58
:1034A000000061EB0401E9E783F000435BE781F092
:1034B000004158E72DE9FE4F81EA030404F000447F
:1034C00021F0004100944FF0000B23F0004350EA3C
:1034D00001045ED052EA03045BD0C3F30A54C1F383
:1034E0000A552C44A4F2F3340194A0FB0254C1F316
:1034F000130141F48011C3F3130343F4801301FB60
:10350000024400FB034E840A970A44EA815447EAC6
:103510008357A4FB076802958D0A05FB07854FEAD0
:10352000932C04FB0C542705029D4FEA065847EAEA
:103530001637B5EB08056EEB070C870E920E47EABF
:10354000811742EA8312A7FB0201B6EB0B0164EB81
:1035500000042B0D43EA0C335E1844EB1C50DA4692
:103560005146E7FB0201C5F313044FEA0B3343EA6C
:1035700014534FEA0432019C43EA0603A4F10C04FD
:103580000294009CCDE900B400F0DAF903B0BDE884
:10359000F08F00200146F9E72DE9F04D81EA0304A0
:1035A00004F0004B21F0004514464FF0000A23F0D0
:1035B000004150EA050220D054EA01021DD0C5F3B3
:1035C0000A570246C5F31303C1F31300C1F30A56A9
:1035D00040F4801543F48013A7EB0608101BD64671
:1035E00008F2FD3873EB050002D308F1010801E091
:1035F00092185B41B8F1000F03DA00200146BDE8E4
:10360000F08D00204FF48011064684460EE0171B13
:1036100073EB050705D3121B63EB050306434CEA66
:10362000010C49084FEA300092185B4150EA01074B
:10363000EDD152EA030012D082EA040083EA0501C8
:10364000084305D0101BAB4106D20122002306E03F
:1036500000224FF0004302E06FF0010253101AEB1A
:1036600006004CEB085110EB0A0041EB0B01BDE8E2
:10367000F04D00F056B9C10F80EAE0700844CA0767
:103680009623002100F01FB996230022114600F076
:103690001AB90EB5C10F80EAE0700844CA070021CC
:1036A00040F233438DE80E000A460B4600F048F91D
:1036B00003B000BD0EB540F2334102910021CDE9C7
:1036C00000110A460B4600F03BF903B000BD00F0C4
:1036D000004220F00040C10DC0F3160040F400008D
:1036E0007F2901DA00207047962903DCC1F1960199
:1036F000C84001E096398840002AF4D04042704723
:1037000020F00040C10DC0F3160040F400007F29F6
:1037100001DA00207047962903DCC1F19601C84008
:10372000704796398840704770B5C1F30A5201F06E
:1037300000450024C1F3130140F2FF3341F480112E
:103740009A4201DA002070BD40F233439A42A2F25D
:10375000334203DC524200F08BF800E090402C43EF
:10376000F1D0404270BD00F0004230F000400AD07D
:10377000C10D01F56071C0F3160042EA0151C208A3
:1037800040071143704700200146704701F0004395
:1037900030B421F0004150EA010206D00A0DA2F532
:1037A0006072C1F31301002A02DC30BC00207047B4
:1037B000440F44EAC104C100E01830BC00EBC25021
:1037C00000F078B830B50B460146002020220124D5
:1037D00009E021FA02F59D4205D303FA02F5491BDF
:1037E00004FA02F52844151EA2F10102F1DC30BDF5
:1037F0002DE9F05F0546002092469B468846064626
:10380000814640241BE0284641464746224600F0B8
:103810002FF853465A46C01A914110D31146184604
:10382000224600F016F82D1A67EB01084F46224693
:103830000120002100F00DF817EB00094E41201E79
:10384000A4F10104DFDC484631462A464346BDE880
:10385000F09F202A04DB203A00FA02F10020704792
:103860009140C2F1200320FA03F3194390407047BE
:10387000202A04DB203A21FA02F00021704721FAC5
:1038800002F3D040C2F1200291400843194670472C
:10389000202A06DBCB17203A41FA02F043EAE07314
:1038A00006E041FA02F3D040C2F120029140084301
:1038B000194670470029A8BF7047401C490008BF3F
:1038C00020F00100704710B4B0FA80FC00FA0CF050
:1038D00050EA010404BF10BC704749B1CCF1200488
:1038E00021FA04F411FA0CF118BF01212143084315
:1038F000A3EB0C01CB1D4FEA00614FEA102042BF41
:10390000002010BC704700EBC35010440029A4BF36
:1039100010BC7047401C490008BF20F0010010BCDB
:10392000704710B5141E73F1000408DA401C41F111
:10393000000192185B411A4301D120F0010010BD33
:103940002DE9F04D92469B4611B1B1FA81F202E0A9
:10395000B0FA80F220329046FFF77BFF04460F4614
:1039600040EA0A0041EA0B0153465A46084313D085
:10397000114653EA010019D0C8F140025046FFF742
:1039800077FF05460E46504659464246FFF761FF0F
:10399000084305D0012004E020463946BDE8F08DFB
:1039A0000020054346EAE0762C4337430A98630536
:1039B000E40AA0EB08000022FD0A44EA47540A305A
:1039C00002D500200146E9E7010510196941DDE94A
:1039D000084500196941BDE8F04DA2E7C1F30A525C
:1039E000C1F3130140F2FF3341F480119A4202DA2D
:1039F00000200146704740F233439A42A2F233421C
:103A000002DC5242FFF734BFFFF723BF30B5041E7C
:103A100071F1000404DB4FF00044404264EB01010B
:103A2000141E73F1000405DB1C464FF000435242A4
:103A300063EB0403994208BF904230BD064C074D2A
:103A400006E0E06840F0010394E80700984710346E
:103A5000AC42F6D3FFF770FBF4290108142A0108E1
:103A600070B521F0004303430CD0C1F30A55002484
:103A7000D5EB040564EB0403D617AD1AB34102DBA2
:103A80000020014670BD201841EB025170BD70B599
:103A90008C1810F8015B15F0070301D110F8013BF9
:103AA0002A1106D110F8012B03E010F8016B01F880
:103AB000016B5B1EF9D12B0705D40023521E0DD4D8
:103AC00001F8013BFAE710F8013BCB1A921C03E026
:103AD00013F8015B01F8015B521EF9D5A142D8D35E
:103AE000002070BD10B5084C0221204600F055F8AA
:103AF00010B10649012008602046BDE810404FF48F
:103B0000087100F005B8000000240140A001002069
:103B1000090AC94301607047002904D0816841F057
:103B2000010181607047816821F001018160704767
:103B3000002904D0816841F48071816070478168F8
:103B400021F4807181607047426822F46042491E0E
:103B500042EA413141607047002904D0416841F494
:103B6000006141607047416821F400614160704725
:103B700008B50820ADF8000000208DF80300694664
:103B8000014803F05BFD08BD001001400146002024
:103B90008968490700D50120704702460020126855
:103BA0000A4200D0012070470146002089680907B9
:103BB00000D501207047000010B542680E4B1A4036
:103BC0000C790B6842EA04221343436082680B4B72
:103BD0001A40D1E9024323434C7942EA4402134399
:103BE0008360C26A22F47002097C491EC9B242EAAB
:103BF0000151C16210BD0000FFFEF0FFFDF7F1FFB3
:103C000008B50B208DF8000000208DF801008DF81C
:103C1000020001208DF80300684604F039FA08BD5F
:103C200010B54FF4804004F075FD0121084604F002
:103C30007BFDBDE81040012140F2112004F09EBD43
:103C400070B5072609290AD9C568A1F10A0404EB51
:103C50004404A640B543A3401D43C56007E0056981
:103C600001EB4104A640B543A3401D4305611F235A
:103C7000072A09D2446B521E02EB820293409C43F6
:103C800091400C43446370BD0D2A09D2046BD21FCE
:103C900002EB820293409C4391400C43046370BD4D
:103CA000C46A0D3A02EB820293409C4391400C435C
:103CB000C46270BD816841F00801816070470029CD
:103CC00004D0816841F4A00181607047816821F4CB
:103CD000A00181607047816841F0040181607047F4
:103CE0004FF40061014803F02BBD000000100140BB
:103CF000F8B5002000902B4C4FF4805565606E01A4
:103D0000294F05E06268531E636001D20020F8BDB0
:103D10003146384603F0DEFD0028F3D10121384654
:103D200003F0C0FD6560214E05E06268501E6060D2
:103D300001D20020F8BD3146384603F07EFD002850
:103D4000F3D001221821384603F03EFE6560164E7E
:103D5000143605E06168481E606001D20020F8BD9D
:103D600030888007F6D53988384621F4806139805B
:103D700072B60D49183109880091012103F09EFDAA
:103D800062B6656005E06068411E616001D2002096
:103D9000F8BD30884006F6D5034810300088C0B220
:103DA000F8BD00008802002000540040010003001C
:103DB0002DE9F04105F0A6FB05F048FA0A2002F0D3
:103DC000A3FD0F4F00243C600E4E012535602902F3
:103DD0000D4803F0BEFC0A2002F096FD0B4804805B
:103DE000B0F9000005F0A4FB02F064FF08494FF4AD
:103DF0007A700860074805703D603460BDE8F08166
:103E0000A4010020A0010020000C01407E0200203F
:103E100084020020AC01002070B504464FF0C0556C
:103E20000121284604F08EFC012004F087FB04F0F9
:103E300085FE21784FF4616041436078C0EB00104B
:103E400001EB8000A178084404F058FE04F076FEEF
:103E50000021284604F076FCBDE87040002004F004
:103E60006DBB10B5012004F097FCBDE810400020A8
:103E700004F092BC08B503490844009000980088FB
:103E800008BD0000006C004008B5034A10440090D3
:103E90000098016008BD0000006C00402DE9F04F63
:103EA000B1B0002017906C4808F0DEFE17909DF826
:103EB0005C006A4C012500B1E561E069012802D08F
:103EC00002280CD015E065484FF49671103004F0CC
:103ED00015FC00F045FBE069401CE06109E05F482B
:103EE000103004F0F7FB20B100F024FBE069401C27
:103EF000E0619DF85C000A280BD2DFE800F00A9E22
:103F0000666C7278050D7CA255A00AF0E7FA0AF0FB
:103F100095F931B0BDE8F08F0AF0E2F94C21534831
:103F20000AF0EAFADFF84481D8F83000FFF71BFC0A
:103F300004460D46D8F82C00FFF715FC06460F4640
:103F4000D8F82800FFF70FFC81468A46D8F82400ED
:103F5000FFF709FCD8F84830D8F844C0D8F840B08A
:103F6000D8F83C20CDE913BC15931292D8F838202C
:103F7000D8F83430CDE90A9ACDE90C67CDE9103292
:103F8000CDE90E45CDE90801D8F82000D8F81C107D
:103F9000D8F81820D8F81430CDE90332CDE905104F
:103FA000D8F81010D8F80C20D8F80800CDE9012175
:103FB0000090D8F80430D8F800202D4918A807F050
:103FC00051FC18A80AF08AFAA3E72AA00AF086FA98
:103FD0000AF054F99DE72AA00AF080FA0AF0FAF9EB
:103FE00097E72AA00AF07AFA0AF0FEF991E72AA0E8
:103FF0000AF074FA8DE72BA00AF070FA174C2034FF
:10400000B4F902002A4D0A280BDCB4F902004FF47F
:104010004C7148430A2190FBF1F080B2E88300F034
:10402000B7FAB4F904001628CEDCA088A885382297
:104030001F49204808F08CFF6BE71FA00AF04EFADA
:1040400067E705200AF0AEF91E4909200880E560FF
:104050001DA00AF043FA5CE752070020340200205A
:10406000544C534D0D0A0D0A00000000840400203A
:10407000B0290108544C53540D0A0D0A00000000E9
:10408000544C5354410D0A0D0A000000544C535433
:104090004F0D0A0D0A000000544C43540D0A0D0A3E
:1040A00000000000544C53530D0A0D0A000000009C
:1040B000C803002000F80708544C534552520D0A1B
:1040C0000D0A0000CC010020544C4453570D0A0D3A
:1040D0000A00000008B5012142F2110004F04EFB75
:1040E0004020ADF8000003208DF8020018208DF864
:1040F00003006946064803F0A1FA32214FF47A60C2
:1041000004F0E0F9002000F043FA00F013FA08BDD3
:10411000001001402DE9F04780460D462F0ADFF8D8
:10412000DCA00121504603F0BDFB354C4FF4805616
:104130006660DFF8D09006E06168491E616002D2D7
:104140000120BDE8F0874946504603F076FB002881
:10415000F2D00022C821504603F036FC6660DFF83A
:10416000A89005E06168481E606001D20120E8E780
:104170004946504603F061FB0028F3D041465046C3
:1041800003F02BFCDFF8808008F1020805E061688D
:10419000481E606001D20120D3E74146504603F03B
:1041A0004CFB0028F3D03946504603F016FC6660FD
:1041B000474605E06168481E606001D20120C0E703
:1041C0003946504603F039FB0028F3D0E9B2504697
:1041D00003F003FC666005E06268531E636001D271
:1041E0000120AEE73946504603F027FB0028F3D004
:1041F0000121504603F062FB0020A2E7005400407A
:104200008802002001000300820007002DE9F0472A
:104210000025464881681E2973D90178002970D08D
:104220000027876003F099FA04F0EBFD0546012DA5
:104230002FD02846FFF71FFA3D49FFF718F83D49F0
:10424000FFF747F804463C4E74603C4809F036FEE0
:104250003B492046FFF705F8DFF8E8904946FFF7AD
:1042600006F83949FFF735F83849FEF7A8FF044644
:104270003748B0F800803748844214DC4FF4784067
:1042800009F0FAFD0120307014F1FF4F1BD3002418
:1042900019E000F07DF8052002F036FB07F0A0FAE7
:1042A0000120BDE8F0872C48844204DA4FF6E07024
:1042B00009F0E2FD03E04FF4FC6009F0DDFD37702A
:1042C0004C4500DD4C4604F099FDFFF7DDF9234F26
:1042D0003946FEF7C6FF2249FEF7C9FF3946FEF709
:1042E000F8FF204A716840F2311691420ADD1E49FA
:1042F000884207DA002332460A211CA008F0EEFFAC
:104300000FE011E02046FFF72EFA02460B461CA1F3
:104310001E4807F0A7FA0023324626211B4808F062
:10432000DDFF404609F0A8FDA8B2BAE788020020E8
:10433000CDCCBC4100FF7F470C090020661D010861
:10434000000040410000C84220D89D400000A0402D
:1043500000020020000020410000044200FEFF4651
:104360009A991940F628864117B7D1382020202085
:10437000202020202020202020202020200000009D
:1043800025322E306625252020000000BC020020AA
:104390001FB5104C204603F069FA00F01FF8002109
:1043A000ADF804104BF6FF71ADF80610C821ADF85A
:1043B00008102115ADF80A100901ADF80C100649D6
:1043C00000910121204603F044FA6946204603F09B
:1043D0009BFA1FBD00540040801A060008B5012159
:1043E000092004F0CBF90121480504F0ABF9C02005
:1043F000ADF8000003208DF802001C208DF80300AA
:104400006946024803F01AF908BD0000000C01409B
:104410002DE9F04706460D46DFF8AC800121404605
:1044200003F040FA294C4FF480576760DFF8A09002
:1044300006E06168481E606002D20120BDE8F08796
:104440004946404603F0F9F90028F2D00022C8217D
:10445000404603F0B9FA67601E4F05E06168481EE8
:10446000606001D20120E9E73946404603F0E5F9F2
:104470000028F3D03146404603F0AFFA154EB61C83
:1044800005E06168481E606001D20120D6E7314630
:10449000404603F0D2F90028F3D02946404603F005
:1044A0009CFA05E06268531E636001D20120C5E7F3
:1044B0003146404603F0C1F90028F3D001214046BF
:1044C00003F0FCF90020B9E7005400408802002006
:1044D0000100030082000700FEE7000010B504F0B1
:1044E000AFFF18B32D2002F00FFA04F0A9FFE8B1D6
:1044F00041F288310E4804F001F911E003F078FA36
:104500000B4804F0E7F810B907E003F071FA04F083
:1045100097FF0028F9D1052010BD322002F0F4F9F0
:1045200004F08EFF0028E9D1012010BD002010BD4D
:104530002C02002010B5002000F02AF8064C0021C3
:10454000204606F059F90021204606F049F90349B2
:104550000120087010BD00000034014068020020F6
:1045600010B50848C08B00F013F8074C0121204615
:1045700006F036F90121204606F03EF903490020F5
:10458000087010BDC80300200034014068020020FC
:104590004FF44C71884200D9084601464FF4702010
:1045A00001F0ECBDC1B2000A40EA012070470000F2
:1045B0002DE9FC5FF848006800287DD0F7480068C6
:1045C000002879D0F6480168491C0160016800257F
:1045D0000F2902D9056003F0A7FA00210020F14A53
:1045E00032F810301944401C4028F9DBEE48C1F382
:1045F0008F170780DFF8B49399F80020E949EC4E53
:104600008031DFF8B08301F130004AB198F8002022
:1046100021F8127098F8001000EB41018F8006E03D
:10462000327821F81270317800EB41018F80DFF889
:1046300074B30BF1B00BBBF80400FFF725F8DE49AB
:10464000FEF715FEDD49FEF744FE8246ABF120047D
:10465000C4F800A0BBF80600FFF716F8D649FEF72D
:1046600006FED649FEF735FE60600190BBF80800F3
:10467000FFF70AF8D049FEF7FAFDD049FEF729FE08
:10468000A0600090BBF80A00FEF7FEFFCA49FEF7E3
:10469000EEFDCA49FEF71DFE8346C4F80CB099F83A
:1046A0000000C74C70B3DFF81CA39AF80000002884
:1046B00027D0C548006800E07BE2052821D1618948
:1046C000B848022280380270ED2242703A0A8270A5
:1046D000C7700A0A02714171B168090A8171B16833
:1046E000C17198F80010017299F8001041720146EA
:1046F0004022812006F0EEFF012005F037F98AF80C
:10470000005089E04FF07F515046FEF7B0FDAF49B1
:10471000FEF7DFFDFFF727F8AD4AAE4BFEF73CFF93
:10472000FFF734F89F4FB03778614FF07F51019811
:10473000FEF79DFDA849FEF7CCFDFFF714F8A44A4B
:10474000A44BFEF729FFFFF721F8B8614FF07F5126
:104750000098FEF78CFDA149FEF7BBFDFFF703F8BB
:104760009B4A9C4BFEF718FFFFF710F8F8614FF0DB
:104770007F515846FEF77BFD9949FEF7AAFDFEF7EB
:10478000F2FF934A934BFEF707FFFEF7FFFF3862F5
:1047900094480088B88594480AEB00019348814208
:1047A00002D24FF0010001E04FF00000B87002D2D9
:1047B0004FF0010101E04FF0000100EA0100B87084
:1047C00002D24FF0010101E04FF0000100EA0100C8
:1047D000B87002D24FF0010101E04FF0000100EA91
:1047E0000100B870DFF8DCA19AF80000A0B17648AB
:1047F0000068052810D102203870DD2078703078EC
:10480000F87068494022B031812006F063FF012032
:1048100005F0ACF88AF8005099F80000744F4FF496
:10482000402A00287ED1B0680028FBD13078401C97
:1048300030703078072800D93570307880070ED076
:10484000307800F0030001281AD0307800F003001F
:10485000022826D03078C043800733D042E00121BF
:10486000002002F013FD0021012002F00FFD0021C5
:10487000022002F00BFD0021032002F007FD31E0D1
:104880000021084602F002FD0121084602F0FEFC6C
:104890000021022002F0FAFC0021032002F0F6FCC5
:1048A00020E00021084602F0F1FC0021012002F086
:1048B000EDFC0121022002F0E9FC0021032002F0BE
:1048C000E5FC0FE00021084602F0E0FC0021012099
:1048D00002F0DCFC0021022002F0D8FC01210320C0
:1048E00002F0D4FC31784FF400204FF410224FF442
:1048F00020234FF4302C21B1317891B33178032942
:1049000078D8B188D1B1B08801281BD0B0880228EE
:104910001DD0B08803281FD0B088042822D0B088CA
:10492000052800E0BBE022D0B088062824D0B0885B
:10493000072826D0B088082828D0A9E0618801F08F
:104940001DFCA5E0A188104601F018FCA0E0E1885C
:10495000184601F013FC9BE02189604601F00EFC33
:1049600096E047E06189504601F008FC90E0E1895B
:10497000002004F00DFD8BE0218A012004F008FDE9
:1049800086E0618A022004F003FD81E0A18A032011
:1049900004F0FEFC7CE00000A4010020A001002047
:1049A000A80100200C0800209C010020AE0100207E
:1049B0007C020020AD0100200000404000F07F4557
:1049C000C80300200000002020010020DBF97E3E0B
:1049D0009A9999999999E13F0000CC415C8F1240D6
:1049E0009A991141B2010020333333C23333730239
:1049F000B001002098F80010042949D398F800105D
:104A0000072945D8B188C1B1B088012819D0B0882C
:104A100002281BD0B08803281DD0B08804281FD0DE
:104A2000B088052821D0B088062823D0B088072870
:104A300025D0B088082827D02AE0002101F09EFB6D
:104A400026E00021104601F099FB21E000211846E4
:104A500001F094FB1CE00021604601F08FFB17E0A1
:104A60000021504601F08AFB12E00021084604F0C4
:104A70008FFC0DE00021012004F08AFC08E00021F9
:104A8000022004F085FC03E00021032004F080FCF8
:104A90003888B060B068642801DA6420B060B0681B
:104AA000A0BB99F8000088B398F80000401C88F873
:104AB000000098F80000072801D988F8005098F8FD
:104AC0000000800711D098F8000000F003000128D2
:104AD0001DD098F8000000F00300022828D098F8B4
:104AE0000000C043800734D043E00121002002F0E1
:104AF000CDFB0021012002F0C9FB0021022002F0C1
:104B0000C5FB0021032002F0C1FB32E04FE0002191
:104B1000084602F0BBFB0121084602F0B7FB00216A
:104B2000022002F0B3FB0021032002F0AFFB20E0E3
:104B30000021084602F0AAFB0021012002F0A6FB9A
:104B40000121022002F0A2FB0021032002F09EFBC3
:104B50000FE00021084602F099FB0021012002F03D
:104B600095FB0021022002F091FB0121032002F0BD
:104B70008DFB98F80010104831B198F8001031B151
:104B800098F80010032902D80088608109E098F89D
:104B90000010042905D398F80010072901D840888F
:104BA00060816189504601F0E9FA3888B0600348B5
:104BB0000560BDE8FC9F0000B8010020A0010020B6
:104BC0002DE9F047AA48006800287DD0A94E30683A
:104BD000002879D0A8480168491C016001680025B7
:104BE0000F2902D9056002F09FFF00210020A34A8F
:104BF00032F810301944401C4028F9DB8809A049DC
:104C00000880A04F9D4C3978803424F81100B7F902
:104C1000021004F1600808EB4101C881387834F8CB
:104C20001000FEF731FD8146397804F1300000EBC9
:104C30004100B0F92400FEF71EFD4946FEF7BFFA19
:104C40009149FEF714FB9149FEF743FBDFF84092D0
:104C5000B7F9021059F82110FEF703FBB7F902105B
:104C600059F82110FEF735FB8A49FEF700FB10F1D9
:104C7000FF4F01D380F000408749884201DD0120C9
:104C800000E000203978B7F9022034F8111008EB61
:104C90004202D181798888F80210B7F90610012400
:104CA000092904DB7988042901D188F80340F988AF
:104CB00088F80410B96800297ED138B1B7F902002C
:104CC00040444179491C00E056E04171DFF8CCA135
:104CD0009AF800004FF0020998B171480068052861
:104CE0000FD188F80090DF2088F801006349402246
:104CF000E031812006F0EEFC012004F037FE8AF856
:104D000000507888401C7880B7F90200042838DD0C
:104D10007D80F888401CF880B7F906000A2830DB4F
:104D200003F0ECFA98F80500042802D888F805503A
:104D300001E088F8054098F80600042802D888F8B1
:104D4000065001E088F8064098F80700042802D8C9
:104D500088F8065001E088F8074098F80800042811
:104D600002D888F8085001E088F8084098F809004F
:104D7000042803D888F80950BDE8F08788F809406E
:104D8000FAE779880320E9B1798801291CD079886C
:104D900002291CD0788803281BD03D703878800702
:104DA00019D0387800F00300012825D0387800F0B9
:104DB0000300022831D000E057E03878C043800774
:104DC0003CD04BE03870E9E787F80090E6E73870B0
:104DD000E4E73C70E2E70121002002F057FA0021ED
:104DE000012002F053FA0021022002F04FFA0021C4
:104DF000032002F04BFA31E00021084602F046FAA7
:104E00000121084602F042FA0021022002F03EFA97
:104E10000021032002F03AFA20E00021084602F0C7
:104E200035FA0021012002F031FA0121022002F0BE
:104E30002DFA0021032002F029FA0FE00021084694
:104E400002F024FA0021012002F020FA00210220C1
:104E500002F01CFA0121032002F018FAB7F902004F
:104E600004F066FB4FF47A70B860356084E70000A8
:104E7000A4010020A0010020A80100200C080020AF
:104E80009C0100207C0200200000404000F07F4593
:104E9000101601080000C8420000A04100000020D8
:104EA000200100202DE9F84F002000904BF6BF773D
:104EB00048F28008614E624D40F68F7ADFF88491A7
:104EC00048F60F7B604C2CE0088800F00F0089F852
:104ED000000078B304EB8001D1F8002C0092BDF8FB
:104EE000002012040AD5D1F8002C02EA0A02C1F807
:104EF000002C5649401E51F820008047BDF80000A4
:104F000000060ED599F8000004EB8001D1F8002CC2
:104F100002EA0B02C1F8002C4D49401E51F8200056
:104F200080474648443000684A4908800004CBD492
:104F3000BDE8F88FFFE730682880288800F030004F
:104F40006880288800F4405028803068384080F419
:104F5000005080F0200040EA080030600888C00659
:104F600020D4306800EA0B00306002F05BFD30684E
:104F700038402988C90401D580F4805029888904E3
:104F800001D580F400506988C90601D580F0100071
:104F90006988890601D580F0200080B240EA0800C7
:104FA0003060C5E730680090BDF80000000520D5EE
:104FB000306800EA0A00306004F01CFF30683840B6
:104FC0002988C90401D580F480502988890401D535
:104FD00080F400506988C90601D580F01000698806
:104FE000890601D580F0200080B240EA08003060D8
:104FF0009EE7BDF80000000493D5306800EA0A007F
:10500000306003F00BF9306838402988C90401D5B5
:1050100080F480502988890401D580F40050698883
:10502000C90601D580F010006988890601D580F095
:10503000200080B240EA0800306079E7005C004060
:105040005A01002048010020005000406400002068
:10505000480000203E0000202DE9F04704460D46A0
:1050600003F018FB4FF4002A0021504601F086F8A7
:105070000A2001F049FC4FF410290021484601F0B4
:105080007DF80A2001F040FC4FF420280021404622
:1050900001F074F80A2001F037FC4FF430270021AA
:1050A000384601F06BF80A2001F02EFC4FF4402640
:1050B0000021304601F062F80A2001F025FC03F0DF
:1050C000F9FA0021084604F063F90A2001F01CFCFB
:1050D0000021012004F05CF90A2001F015FC0021F8
:1050E000022004F055F90A2001F00EFC00210320F3
:1050F00004F04EF90A2001F007FC012C15D0022C17
:105100001AD0032C1FD0042C24D0052C29D0062C17
:105110002ED0072C33D0082C38D0092C3DD003F0EA
:10512000B9FABDE8F04703F0C5BA03F0BBFA294667
:10513000504601F023F836E003F0B4FA2946484619
:1051400001F01CF82FE003F0ADFA2946404601F0CB
:1051500015F828E003F0A6FA2946384601F00EF8C3
:1051600021E003F09FFA2946304601F007F81AE0E3
:1051700003F0A8FA2946002004F00AF913E003F02E
:10518000A1FA2946012004F003F90CE003F09AFA91
:105190002946022004F0FCF805E003F093FA2946C2
:1051A000032004F0F5F80A2001F0AEFB4FF4807103
:1051B0000F4802F0CEFA0A2001F0A6FB04F046F8F0
:1051C0000A2001F0A1FB64214FF4A06004F01EFD51
:1051D0000A2001F099FB64214FF4806004F088FC00
:1051E0000A2001F091FBBDE8F04701F063BD00002B
:1051F000000C0140810008480844D0F8001C490414
:1052000009D5D0F8001C48F68F7211404CF280028C
:105210001143C0F8001C704700500040810008484E
:105220000844D0F8001C490609D5D0F8001C48F6FF
:105230008F72114048F2C0021143C0F8001C704741
:1052400000500040810006480844D0F8001C48F691
:105250008F62114048F280021143C0F8001C704771
:10526000005000402DE9F04F85B0FE4CFE4D94F803
:1052700001A04AF080006870A078A870E378EB7015
:1052800022792A71617904916971A1790391A971D7
:10529000E1790291E971217A01912972617A009193
:1052A0006972A17AA972E17AE972AAF1510AEF4F03
:1052B000DFF8BC93EF4E03EB00214FF4805C4FF01E
:1052C00000084FEA002BBAF12A0F70D2DFE80AF08B
:1052D000EFEEEDECC3D9D6EB19EAE96F6F6F6F15FE
:1052E000222D38434E5964708E98A2ACB6C8CDD2E8
:1052F000DCDFF0F5FAE5E4E36FE2A01CFEF78CFDDD
:105300005CE2A01CFEF788FD3822D849A81CFDF7F6
:105310003DFF53E289B2614501D340F6FF717980C8
:105320004FF4002000F02AFF48E289B2614501D322
:1053300040F6FF71B9804FF4102000F01FFF3DE2EE
:1053400089B2614501D340F6FF71F9804FF4202006
:1053500000F014FF32E289B2614501D340F6FF71DB
:1053600039814FF4302000F009FF27E289B261450E
:1053700001D340F6FF7179814FF4402000F0FEFE2A
:105380001CE289B2614501D340F6FF71B9814FF447
:10539000502000F0F3FE11E289B23985614501D356
:1053A00040F6FF714FF4602000F0E8FE06E2FCE3F7
:1053B00088B2604501D340F6FF70049901EB0221E9
:1053C00089B2614501D340F6FF71DDE9022302EBAA
:1053D000032292B2624501D340F6FF72DDE9003646
:1053E00003EB06239BB202F051FFE7E189B261456E
:1053F00001D340F6FF71F981002003F0C9FFDDE120
:1054000089B2614501D340F6FF713982012003F072
:10541000BFFFD3E189B2614501D340F6FF717982C4
:10542000022003F0B5FFC9E189B2614501D340F61E
:10543000FF71B982032003F0ABFFBFE18E4908780A
:1054400038B1002008708D480088010AA970E87002
:10545000B4E10120F6E78A48016002F055FBADE1B6
:105460001946584604F0D2FBA8E11946584604F004
:105470003FFBA3E1194604F06DFC9FE104F01AFC28
:105480009CE103F0E3FE99E102F038FF96E17D49EB
:10549000087093E1FAE3FAE3CDE3BEE312E00CE037
:1054A00006E08CE123E0BFE31AE0F1E3F1E3F1E38E
:1054B00000F03F0004F064FB80E100F00F0004F016
:1054C000D1FA7BE128B14FF480716F4802F041F9C5
:1054D00004E04FF480716C4802F039F9A8786DE16E
:1054E000012102F0CDFF97F83300E87066E197F8EC
:1054F000331001298DD100287ED0DFF8909199F8E2
:105500000000002885D103F0A1FE0A2001F0FCF97B
:10551000DFF86CB1CBF800805D484FF0010AC0F8AD
:1055200000A05C49072008702079E17809F10C0699
:1055300000EB01203080A079617900EB01207080C0
:10554000207AE17900EB0120A9F8040003F0AAF821
:1055500000214FF4002000F011FE0A2001F0D4F9E0
:1055600000214FF4102000F009FE0A2001F0CCF9D0
:1055700000214FF4202000F001FE0A2001F0C4F9C0
:1055800000214FF4302000F0F9FD0A2001F0BCF9B1
:1055900000214FF4402000F0F1FD0A2001F0B4F9A1
:1055A00003F088F80021084603F0F2FE0A2001F01B
:1055B000ABF90021012003F0EBFE0A2001F0A4F971
:1055C0000021022003F0E4FE0A2001F09DF90021F1
:1055D000032003F0DDFE0A2001F096F900214FF4CC
:1055E000602000F0CBFD0A2001F08EF94FF48071AD
:1055F000254802F0AEF800E066E00A2001F084F9E8
:1056000003F024FE0A2001F07FF9CBF800A03088D7
:10561000788179894FF4402000F0B0FD788848B94E
:10562000B88838B9F88828B9388918B9788908B994
:10563000B88938B1F88AC1B200F47F4004F0E6FAC4
:1056400001F038FB102004F09BFA89F800A0B9F8AB
:1056500004101148016089F802A089F80180012135
:1056600000201BE0CC02002088030020C80300209B
:105670007C01002080010020020000209C0100200D
:10568000A401002094010020000C0140AC01002086
:10569000A00100201E0200208402002001F0F6FD7F
:1056A0000021012001F0F2FD0021022001F0EEFDB9
:1056B0000021032001F0EAFD89F80180CBF800A069
:1056C000FE48C0F8008066E3FD4F387840B1D9F855
:1056D0000000002804DDD9F800003060C9F800801F
:1056E000F848C0F8008002F0D5FF02F0E3FF03F0B5
:1056F000ADFD0A2001F008F94FF48071F24802F084
:1057000026F800214FF4002000F038FD0A2001F0B7
:10571000FBF800214FF4102000F030FD0A2001F0CA
:10572000F3F800214FF4202000F028FD0A2001F0BA
:10573000EBF800214FF4302000F020FD0A2001F0AA
:10574000E3F800214FF4402000F018FD0A2001F09A
:10575000DBF800214FF4502000F010FD0A2001F08A
:10576000D3F800214FF4602000F008FD0A2001F07A
:10577000CBF80021084603F00BFE0A2001F0C4F824
:105780000021012003F004FE0A2001F0BDF80021F1
:10579000022003F0FDFD0A2001F0B6F800210320ED
:1057A00003F0F6FD0A2001F0AFF801F06DFA87F87A
:1057B0000080C648C0F8008087F80280EBE200282D
:1057C0007ED0DFF8FC9299F800000028F6D103F0B3
:1057D0003DFD0A2001F098F8DFF8E8B2CBF8008030
:1057E000B6484FF0010AC0F800A0B9490720087078
:1057F000B84E60793080B6F90000082801DDA6F8BF
:1058000000802079E17800EB0120A9F8060002F081
:1058100041FF00214FF4002000F0B0FC0A2001F00D
:1058200073F800214FF4102000F0A8FC0A2001F0CA
:105830006BF800214FF4202000F0A0FC0A2001F0BA
:1058400063F800214FF4302000F098FC0A2001F0AA
:105850005BF800214FF4402000F090FC0A2001F09A
:1058600053F802F027FF0021084603F091FD0A20BB
:1058700001F04AF80021012003F08AFD0A2001F01E
:1058800043F80021022003F083FD0A2001F03CF8D8
:105890000021032003F07CFD0A2001F035F8A7F871
:1058A0000280A7F80480A7F80680A7F80880A7F868
:1058B0000A80A7F80E80A7F81080A7F8128000E0F1
:1058C0003BE1A7F814803088E0B33088012844D049
:1058D000308802284BD03088032852D030880428E2
:1058E00059D03088052860D03088062866D03088A6
:1058F00007286CD03088082873D002F0CBFE02F065
:10590000D9FE0A2001F000F84FF480716E4801F0D2
:1059100020FF0A2000F0F8FF03F098FC0A2000F0B6
:10592000F3FFCBF800A0B6F90000002862DBB6F95F
:10593000000004285EDCF88AC1B200F47F4004F065
:1059400065F96EE0FFE702F0ADFEB9F80610798068
:105950004FF4002000F012FCD3E702F0A3FEB9F8E8
:105960000610B9804FF4102000F008FCC9E702F0DF
:1059700099FEB9F80610F9804FF4202000F0FEFBE4
:10598000BFE702F08FFEB9F8061039814FF43020DE
:1059900000F0F4FBB5E702F085FEB9F80610798156
:1059A0004FF4402000F0EAFBABE702F08BFEB9F8C1
:1059B0000610F981002003F0EBFCA2E702F082FE62
:1059C000B9F806103982012003F0E2FC99E702F0F1
:1059D00079FEB9F806107982022003F0D9FC90E72D
:1059E000FFE702F06FFEB9F80610B982032003F05A
:1059F000CFFC86E7B6F9000005280ADBB6F90000FF
:105A0000082806DC388BC1B200F47F4004F070F83F
:105A100007E00021084604F0F9F80021084604F0E8
:105A200067F8788888B9B88878B9F88868B9388903
:105A300058B9788948B9B88938B9F88928B9388AFD
:105A400018B9788A08B9B88A08B101F033F93088F2
:105A500090B33088012850D03088022851D0308847
:105A6000032852D03088042853D03088052854D0D9
:105A70003088062855D03088072856D03088082826
:105A800057D0002004F07CF8002003F0EBFF0A2040
:105A900000F03AFFB9F804100C48016089F8028060
:105AA00089F800A00121002001F0F0FB0021012075
:105AB00001F0ECFB00210FE01BE00000A001002042
:105AC000AC010020A4010020000C01408402002051
:105AD0001E02002080020020022001F0D7FB0021DE
:105AE000032001F0D3FBCBF800A0B048C0F8008041
:105AF00051E1012004F044F8C9E7022004F040F825
:105B0000C5E7042004F03CF8C1E7082004F038F8A9
:105B1000BDE7102004F034F8B9E7012003F0A2FF3C
:105B2000B5E7022003F09EFFB1E7042003F09AFFDF
:105B3000ADE7082003F096FFA9E79D48C0F8008074
:105B400002F0A8FD02F0B6FD03F080FB0A2000F091
:105B5000DBFE4FF48071974801F0F9FD00214FF40E
:105B6000002000F00BFB0A2000F0CEFE00214FF4D5
:105B7000102000F003FB0A2000F0C6FE00214FF4C5
:105B8000202000F0FBFA0A2000F0BEFE00214FF4B6
:105B9000302000F0F3FA0A2000F0B6FE00214FF4A6
:105BA000402000F0EBFA0A2000E0F2E000F0ACFE4A
:105BB00000214FF4502000F0E1FA0A2000F0A4FE8A
:105BC00000214FF4602000F0D9FA0A2000F09CFE7A
:105BD0000021084603F0DCFB0A2000F095FE0021BE
:105BE000012003F0D5FB0A2000F08EFE00210220E8
:105BF00003F0CEFB0A2000F087FE0021032003F013
:105C0000C7FB0A2000F080FE01F03EF86A4880F8E9
:105C100000806A48C0F80080BDE010B102F042FD8B
:105C2000B9E002F037FDB6E010B102F04BFDB2E092
:105C300002F040FDAFE0C00704D00121002001F0D8
:105C400025FB03E00021084601F020FBA078800737
:105C500004D50121084601F019FB03E000210120D1
:105C600001F014FBA078400704D50121022001F0C7
:105C70000DFB03E00021022001F008FBA0780007E3
:105C800009D50121032001F001FB84E05CE007E07D
:105C90001EE053E028E00021032001F0F7FA7AE04B
:105CA0003822A11C4648FDF771FA786A306000F08E
:105CB000B1FE788D434931F810004349088005F062
:105CC00071F838223E49414807F042F902F026FABD
:105CD0001822A11C3E48FDF759FA20223C493D48B4
:105CE00007F036F902F01AFA3B4954F8020F08603F
:105CF00060684860A068A41E8860B1F90000344A5A
:105D0000364B30B1012808D002280AD003280CD025
:105D100041E04888108398840AE088885083D884BA
:105D200006E0C8889083188502E00889D0835885EA
:105D300020222749274807F00BF92CE002EB03212A
:105D400089B2FFF789F926E058B12548007898B163
:105D50003068C9F8000023490720087005F0AEF844
:105D60000AE0D9F80000002806DDD9F8000030600C
:105D7000C9F8008005F016F83068000AE87030684D
:105D80002871D9F80000000A6871D9F80000A871DC
:105D900001E0FF2068706078592801D1F820687010
:105DA00005B0BDE8F04F05F0E3BC0000A001002005
:105DB000A4010020000C0140AC010020840200205E
:105DC000C8030020CE010020FE01002000F80708D3
:105DD0000004002000F0070820040020BC08002078
:105DE000FC0100201E02002070B5FDF719FFFDF731
:105DF00007FFFDF7BDFE2F4D284600F0B7FA2F49EB
:105E00002D48086001F12C00486000248C6040207F
:105E1000C8600C6180204861400088618000C861D2
:105E200020200862000248628C62284600F036FB9F
:105E300001220221284600F027FB0121284600F01C
:105E400087FA1E48143804600121017144714FF42F
:105E500060228260C4600174174C01464C3C2046AD
:105E6000FDF7AAFE032301220D212046FDF7E8FEDF
:105E700001212046FDF768FE01212046FDF76CFE5A
:105E800001212046FDF754FE01212046FDF744FE86
:105E90002046FDF70FFF2046FDF786FE0028FAD1C9
:105EA0002046FDF718FF2046FDF770FE0028FAD1C6
:105EB00070BD0000080002404C240140E0070020B3
:105EC00010B519490A689188002901D0022010BD37
:105ED0000021062804D1137803F07F03012B05D09D
:105EE000137803F07F03212B0AD014E09078222846
:105EF00002D0212802D00EE00C490CE00C490AE047
:105F0000032802D0092806D101E00A4903E00A4922
:105F10000A4B0920187029B19161002050828847EE
:105F2000002010BD022010BD4C010020815F000840
:105F3000595F0008655F0008DD60000880000020F0
:105F4000014904F02DB8000090000020014904F040
:105F500027B8000088000020014904F021B80000A3
:105F6000A0000020002801D0034870470349012009
:105F70000968088200207047840000204C0100203E
:105F8000014904F00DB80000980000200549096897
:105F9000C978042901D900207047034A02EBC101E6
:105FA00003F0FEBF4C010020D8000020002901D0E2
:105FB0000220704708B1022070470020704700009F
:105FC00006490968097801F07F01212901D10B28D0
:105FD00001D00220704700F075B800004C0100208D
:105FE00010B52A480021006881722949C979417297
:105FF000002003F0FBFB4FF40071002003F0CAFC0B
:106000001021002003F09AFC1821002003F01AFC54
:10601000204C0020217803F025FC5821002003F0BB
:106020006FFC2178002003F07BFC0020FFF70AF9C9
:10603000002003F051FC4FF4C0642146012003F01E
:10604000A9FC4FF48071012003F05AFC402101208B
:1060500003F066FC2021012003F070FC21460220A1
:1060600003F098FC4FF4A871022003F0EBFB4021F1
:10607000022003F0F7FBE100022003F015FC0020F2
:1060800003F0BCFB04490120086010BD4C01002056
:1060900006E60008D4000020200100200448006823
:1060A000807A002802D0034905200860704700006C
:1060B0004C010020200100200149042008607047A5
:1060C0002001002003480068C07803494860002090
:1060D000704700004C01002080000020002801D003
:1060E000034870470349022009680882002070476E
:1060F0000C0300204C0100207047704710B501F0E0
:1061000073FB064800240068847202F0ADFA05F0C3
:10611000BFFA05F0EDF90248046010BD4C01002003
:106120002001002008B517208DF8000000208DF810
:106130000100684601F0ACFF08BD00004FF480711B
:10614000014801F004BB0000001001404FF48071D1
:10615000014801F0FEBA00000010014010B5002215
:106160000221104600F050F8BDE810404FF4807155
:10617000014801F0EEBA0000001001402DE9F041A5
:1061800005464FF6FF7000EA011400220221104676
:1061900000F03AF8084F4FF400463146384601F017
:1061A000D6FA45EA040000F077F831463846BDE8F3
:1061B000F04101F0CEBA00000018014010B507F020
:1061C00085FA4FF400410D4801F0C3FA80210C48D4
:1061D00001F0BFFA10210B4801F0BBFAFFF7AEFF48
:1061E0000A2000F091FBFFF7B1FFFFF7B7FF0A208D
:1061F00000F08AFBBDE8104002F04CBA00180140E4
:1062000000100140000C0140F0B585B004460D4679
:106210001646134F0021384603F0DEF80020ADF893
:1062200000004FF48273ADF80230ADF80440ADF8D1
:106230000650ADF808607915ADF80A101821ADF8D0
:106240000C10ADF80E000720ADF810006946384676
:1062500003F0D9F80121384603F0BEF805B0F0BDCF
:106260000038004070B505460A4C0221204603F074
:10627000BFF80028F9D02946204603F0C2F80121D2
:10628000204603F0B5F80028F9D02046BDE870405C
:1062900003F0B5B80038004070B504461D4E022129
:1062A000304603F0A5F80028F9D0C4F30741304682
:1062B00003F0A7F80121304603F09AF80028F9D03E
:1062C000304603F09CF8C0B24FF6FF7101EA00259A
:1062D000C4F30721304603F094F80121304603F05F
:1062E00087F80028F9D0304603F089F8C0B2284377
:1062F0000004050AE1B2304603F083F8012130467C
:1063000003F076F80028F9D0304603F078F8C0B2F0
:10631000284370BD0038004010B5022000F0A2F8FC
:10632000002806D0034901200860BDE8104000F0B5
:1063300003B810BDA0010020C10002D502490860C9
:106340007047024948607047040402400000024060
:10635000002904D0016841F0010101607047016823
:106360004FF6FE72114001607047000001684FF661
:10637000FE72114001600021016041608160C160D6
:106380003649364A0839904204D1486840F00F0037
:1063900048607047314A1432904204D1486840F056
:1063A000F000486070472D4A2832904204D1486876
:1063B00040F4706048607047284A3C32904204D1F3
:1063C000486840F4704048607047244A5032904218
:1063D00004D1486840F47020486070471F4A643216
:1063E000904204D1486840F47000486070471B4AEE
:1063F0007832904204D1486840F07060486070473D
:10640000174A111F904204D1086840F00F0008603D
:106410007047134A1432904204D1086840F0F000EB
:10642000086070470E4A2832904204D1086840F450
:106430007060086070470A4A3C32904204D1086894
:1064400040F4704008607047054A50329042FAD1DB
:10645000086840F47020086070470000080002409F
:106460000804024002460020D10002D50449096810
:1064700001E004490968114200D001207047000082
:106480000004024000000240002A03D002680A43D0
:106490000260704702688A430260704730B5026844
:1064A00047F6F0739A430C6A8B682343D1E904459D
:1064B0002C4323438C692343CC6923434C6A2343F5
:1064C0008C6A234313430360CA6842600A6882608F
:1064D0004968C16030BD00002DE9F047DFF89880C1
:1064E000D8F8001001F1100528880E7A234F4FF0DC
:1064F0003009002801D1042E04D0AC88A04215D860
:10650000042614E01E480178012903D00726102034
:1065100038802BE01B4A002112681B4B92B2921C60
:1065200043F81210A7F8009001701FE00226844281
:1065300000D90446A968A0B288478246002001F02D
:1065400045F90146A2B2504605F02EF9A1B200204D
:1065500003F0E6F92888001B2880688820446880BA
:10656000A7F8009009494FF440500880D8F800007F
:106570000672BDE8F08700004C0100205C0100209D
:1065800044010020505C0040006000405A0100209F
:106590002DE9F041214E346810342088A16800298B
:1065A00015D0A0B1A588854200D90546A8B2884774
:1065B00007462088401B2080608828446080002097
:1065C00001F0E4F80146AAB2384601F04DFE2088F9
:1065D000134F302538B1134928020880002108469E
:1065E00003F09EF93D802088A188884204D3316859
:1065F00003200872BDE8F08118B1316805200872E7
:10660000F8E7316806200872074800210068074A49
:1066100080B2801C42F810103D80EBE74C01002056
:106620005C0100205A010020505C004000600040E6
:106630002DE9F843634E306842780024624D062A03
:10664000296801D08AB117E00278520669D18078B2
:10665000012804D0022804D0032804D061E0CC69CA
:106660005FE00C6A5DE04C6A5BE0438823B9C38855
:10667000022B01D1037923B1082A39D00A2A3CD050
:106680004FE00278530601D1838833B102F07F02D4
:10669000012A04D0022A0CD043E04C4C41E08A6924
:1066A00040790021904710BB3068807AF8B1474CA0
:1066B00037E0417901F00F0001F070020B06444908
:1066C00007D501EB8001D1F8001CC1F301110901CC
:1066D00006E001EB8001D1F8001CC1F30131090390
:1066E0003C4B1B7883421CD90AB901B1374C18E0E6
:1066F0000078400615D1384C13E0027802F07F0292
:10670000012A0ED1827A62B1428852B9027942B925
:10671000C288012A05D18A6940790021904700B9D1
:106720002E4C09274FF000083CB13068A0F81280C9
:1067300084610020A047002006E0296830680969CC
:1067400040788847032816D031680A8AA2F57F432B
:10675000FF3B0DD0022811D082B1087800062AD55F
:10676000C8880090009882420CD9009808821AE0EC
:106770000F72BDE8F88330680772FAE74FF008003F
:106780000872F6E70FD22868154B90F82C00824269
:1067900002D283F8008006E0B2FBF0F400FB142084
:1067A00008B901201870286890F82C008882BDE88C
:1067B000F843FFF791BE032008720A4900030880DE
:1067C000D7E700004C01002050010020E99F00089D
:1067D00000500040F8000020799F0008C19F000889
:1067E000440100205A01002070B5404E4FF48075DE
:1067F0002946304600F0ADFF02F028FD0A2000F0E7
:1068000083F83B4A002414603A4B01221A600020AE
:1068100003F0B6F90A2000F077F83748048001F059
:1068200039FF01F047FF0A2000F06EF82946304694
:1068300000F08DFF0021E802FFF7A0FC0A2000F025
:1068400063F800214FF41020FFF798FC0A2000F0B5
:106850005BF800214FF42020FFF790FC0A2000F0A5
:1068600053F800214FF43020FFF788FC0A2000F095
:106870004BF800214FF44020FFF780FC0A2000F085
:1068800043F800214FF45020FFF778FC0A2000F075
:106890003BF800214FF46020FFF770FC0A2000F065
:1068A00033F80021084602F073FD0A2000F02CF8AE
:1068B0000021012002F06CFD0A2000F025F80021E3
:1068C000022002F065FD0A2000F01EF800210320DE
:1068D00002F05EFD0A2000F017F800F0D5F9074934
:1068E0004FF47A7008600648047070BD000C0140D7
:1068F000A4010020A00100207E02002084020020CC
:10690000AC0100207047000031B5084C41F29415ED
:10691000E56006E001F06CF8E068411EE160FBD242
:10692000E5600098411E0091F4D238BD00000020BF
:1069300010B50A4C4FF48061204600F00AFFE114C4
:10694000204600F006FFA114204600F002FF61146B
:106950002046BDE8104000F0FCBE000000180140D9
:1069600008B5054805A24168009103682C2105205F
:1069700007F018FA08BD00000C020020202048692A
:106980002054656D7020000008B5054805A24168D7
:10699000009103688C21052007F004FA08BD00006F
:1069A0000C02002020202020202020202020202039
:1069B0002020000038B5FCF7D6FE02460B460BA19E
:1069C0000E4804F04FFF0E4C0EA28C216068009020
:1069D0000520236807F0E6F960680090074A8C21DB
:1069E0000520236807F0DEF938BD0000506F776599
:1069F000723A25342E32666D57000000BC0200202A
:106A00000C020020202020202020202020202020D8
:106A1000202000007CB51D491D4C91F83310002941
:106A20000AD0D4E90101CDE900011AA2B6210A2059
:106A3000236807F0D5F97CBD4FF4616190FBF1F25A
:106A400090FBF1F301FB13033C2593FBF5F390FB63
:106A5000F1F601FB160090FBF5F105FB110000902B
:106A60000EA1134804F0FEFE124D2E8840F2F56090
:106A70002880D4E90101CDE900010D4AB6210A20A0
:106A8000236807F0ADF92E807CBD0000C80300200C
:106A90005C020020303A30303A30300025302E3160
:106AA000643A25302E32643A25302E3264000000DC
:106AB000BC020020000200207CB50446204EB588B0
:106AC0001F20B080632C00D96324ECB122461DA1A5
:106AD0001D4804F0C7FE1D480A2C0AD2D0E9011255
:106AE000CDE900120368184A1321C22007F078F993
:106AF00023E0D0E90112CDE900120368124A132104
:106B0000AA2007F06DF918E0114C12A2402160682C
:106B10000090AA20236807F045F9606800900DA254
:106B20002821AA20236807F03DF96068009009A297
:106B30001321AA20236807F035F9B5807CBD000039
:106B4000FC01002025640000BC0200205C02002043
:106B50000C020020202020200000000008B50C4876
:106B60000CA24168009103685C21052007F01AF926
:106B70000C49012008700C49087800F0ABFA09783C
:106B80000A4811B10221018008BD0621018008BD1B
:106B90000C0200202020202041726D6564202020FE
:106BA00020200000FC010020FB030020CC0100207D
:106BB0002DE9F04706460F469046002411E0600894
:106BC0003B1806EB4405994628462A46394605F007
:106BD00061FF4B466A1C681C394605F05BFF641C6C
:106BE000E4B24445EBD3BDE8F087000038B500F5CA
:106BF000004040F6880190FBF1F084B20E4D0FA2E8
:106C00004FF49A7168680090B3202B6807F0CAF8B7
:106C1000686800902B6840F2311508A22946B3201D
:106C200007F0C0F81E2C00D91E2422462946BDE8D4
:106C30003840B320FFF7BCBF1402002020202020E2
:106C40002000000008B5094809A2416800910368C6
:106C50005C21052007F0A6F80949002008700948C2
:106C600090F83300BDE8084000F034BA0C02002070
:106C7000202020202049444C4520202020200000B6
:106C8000FC010020C803002008B5054805A24168A2
:106C9000009103684421052007F084F808BD000036
:106CA0000C0200204C41534552533A4F4646202097
:106CB0002020000008B5054805A24168009103683E
:106CC0004421052007F06EF808BD00000C020020EA
:106CD0004C41534552533A4F4E2020202020000073
:106CE00008B5094809A24168009103685C210520A4
:106CF00007F058F8094901200870094890F8330056
:106D0000BDE8084000F0E6B90C02002020204D4507
:106D100041535552494E472020200000FC010020DD
:106D2000C803002008B5094809A24168009103681A
:106D30005C21052007F036F8094901200870094850
:106D400090F83300BDE8084000F0C4B90C02002000
:106D50002020205041555345442020202020000071
:106D6000FC010020C803002008B50E4A0028D2E923
:106D7000003108D001280DD000910BA214213C2035
:106D800007F010F808BD009109A214213C2007F07B
:106D900009F808BD009108A214213C2007F002F870
:106DA00008BD00000C020020202020202000000050
:106DB00057414954200000005354415254000000F0
:106DC00008B5064806A24168009103685C210520C9
:106DD00006F0E8FF06490020087008BD0C020020FC
:106DE00053656C662D54657374204D6F64650000A7
:106DF000FC01002008B50A480A49028DD1E900309B
:106E0000002A06D0009008A22C21052006F0CAFF17
:106E100008BD009007A22C21052006F0C3FF08BD85
:106E2000C80300200C02002054454E533A20204F46
:106E30004646000020202020202020202020000086
:106E400008B50A480A49028DD1E90030002A06D067
:106E5000009008A22C21052006F0A4FF08BD009098
:106E600007A22C21052006F09DFF08BDC8030020C5
:106E70000C02002054454E533A20204F4E20000073
:106E8000202020202020202020200000F8B50446CB
:106E90002046FCF7F9FB214E002C35D02049FCF7A9
:106EA000E6F92049FCF715FA05462846FCF728FCC8
:106EB00084B22046FCF7E8FB2946FCF7D5F9B0F18F
:106EC0007C5F01DD641CA4B2642C05D3224616A1AC
:106ED000194804F0C7FC0EE0A4F10A005A2805D2B4
:106EE000224616A1144804F0BDFC04E0224617A176
:106EF000114804F0B7FC706800900F4A7421052017
:106F0000336806F04FFFF8BD7068009013A274213B
:106F10000520336806F046FFF8BD00000C02002093
:106F20000000C84200F07F4554656E73203A256426
:106F30002525202020000000BC02002054656E732F
:106F4000203A2025642525202020000054656E73FA
:106F5000203A2020256425252020200020202020E4
:106F600020202020202020202020000008B50948D3
:106F700009A24168009103685C21052006F012FF18
:106F8000094901200870094890F83300BDE808401D
:106F900000F0A0B80C02002020202054524541549B
:106FA000494E472020200000FC010020C80300209B
:106FB0000FB42DE9F84F04460D469046BDF83A60EF
:106FC000102E02D94FF0100901E0BDF93A902B20A4
:106FD00006F060FC280A06F083FCE8B206F080FCAC
:106FE0006D1E701985B2280A06F07AFCE8B206F028
:106FF00077FC2A2006F04EFC200A06F071FCE0B275
:1070000006F06EFCBDF83850641E281984B2200AC0
:1070100006F066FCE0B206F063FC2C2006F03AFCB9
:1070200000274FEA1820DFF8A8A0009049E000F000
:10703000DFFC43F6FF760C2D05D0082D03D04FF072
:10704000010B002439E00C2D03D04FF0800B0024FD
:1070500019E04FF4004BFAE72BFA04F0304207D066
:10706000009806F03DFC08F0FF0006F039FC08E04F
:10707000BAF80200000A06F033FC9AF8020006F0A3
:107080002FFC641C24B2A542E6DC18E00BFA04F0E5
:10709000304207D0009806F023FC08F0FF0006F00D
:1070A0001FFC08E0BAF80200000A06F019FC9AF882
:1070B000020006F015FC641C24B2A542E6DC7F1C2D
:1070C000BFB24F45B3DBBDE8F80F5DF814FB00001D
:1070D000FC010020704700001CB50122034BCDE9E4
:1070E00000323C23F02205F0EDFB1CBD00780708C0
:1070F0001CB501200549CDE9001000214FF4A07313
:10710000F022084605F0DEFB1CBD0000002005084B
:1071100001490120087070470000002010B50749A0
:10712000022004F0C5FA0548054940780870BDE81A
:1071300010404FF44051022002F0B6BBCC020020B8
:107140000100002010B54FF40064204600F054F810
:1071500060B1FCF7C5FD30B10B48006818B90121DA
:107160000A48FCF7ACFD204600F02EF84FF48050A2
:1071700000F042F8002805D0BDE810404FF4005060
:1071800000F022B810BD0000A00100200024014042
:1071900010B5042000F030F8002806D002F050F9B5
:1071A000BDE81040042000F00FB810BD704710B5C6
:1071B000202000F021F8002804D0BDE81040202055
:1071C00000F002B810BD00000149086070470000DF
:1071D000140401401CB54FF480242046FFF7F4FF4F
:1071E000009408208DF8050001208DF806006846FF
:1071F00000F012F81CBD000001460020054A12688C
:107200000A40044B14331B680B4202D0002A00D002
:10721000012070470004014030B51B4A83790168A2
:10722000002B2AD013688B431360111D0B68046870
:10723000A3430B60017911440B68046823430B607E
:10724000114C08342168036899432160231D196893
:107250000568A94319604179102905D011440A68CD
:10726000006802430A6030BD216802681143216052
:10727000196800680143196030BD00791044026844
:107280008A43026030BD00000004014002461648F7
:10729000002A0AD0012A11D0022A18D0032A22D1AA
:1072A0004214E9B1114600F052BA4FF4806211B1B4
:1072B000114600F04CBA114600F04BBA4FF4006290
:1072C00011B1114600F043BA114600F042BA4FF432
:1072D000805211B1114600F03ABA114600F039BAA5
:1072E000114600F036BA70470018014070470000A0
:1072F0000149C860704700000020024070B5054693
:107300004FF43026304600F06DF8042811D1094CB6
:10731000206940F0020020616561206940F0400072
:107320002061304600F05EF8216941F6FD7211409F
:10733000216170BD0020024004200849CA68D207BC
:1073400001D001207047CA68520701D5022070475A
:10735000C968C906FBD50320704700000020024021
:107360000248016941F0800101617047002002403C
:107370002DE9F84105460E46002000904FF40057D5
:10738000384600F02FF804280FD10F4C206940F048
:10739000010020612E80B846404600F023F8BF1E51
:1073A000042804D0216939402161BDE8F881AD1C71
:1073B00000950099300C0880404600F013F82169D0
:1073C00039402161F1E700000020024003480249F2
:1073D0004160034941607047230167450020024036
:1073E000AB89EFCD00B50346FFF7A6FF02E0FFF73C
:1073F000A3FF5B1E012801D1002BF8D1002B00D187
:10740000052000BD2DE9FF5F0121192001F0B6F92B
:107410000121402001F0B2F90121202001F0AEF954
:107420000126ADF80C604FF0030B8DF80EB0102460
:107430008DF80F40DFF8A0A103A9504600F0FEF838
:107440004FF00209ADF80C9003A9504600F0F6F891
:107450000425ADF80C5003A9504600F0EFF82701C1
:10746000ADF80C708DF80EB08DF80F4003A95B4895
:1074700000F0E4F84FF48058ADF80C8003A95046B2
:1074800000F0DCF84FF6FF70ADF80C008DF80EB090
:107490008DF80F40DFF848B103A9584600F0CEF848
:1074A000ADF80C9003A9584600F0C8F8ADF80C50A0
:1074B00003A9584600F0C2F84FF00809ADF80C9047
:1074C00003A9584600F0BAF8ADF80C4003A9584695
:1074D00000F0B4F82020ADF80C0003A9584600F0E5
:1074E000ADF84020ADF80C0003A9584600F0A6F80E
:1074F0008020ADF80C0003A9584600F09FF8ADF8C5
:107500000C7003A9584600F099F86001ADF80C0022
:1075100003A9584600F092F8A001ADF80C0003A9A9
:10752000584600F08BF8E401ADF80C4003A958462A
:1075300000F084F8ADF80C8003A9584600F07EF8FE
:10754000A000ADF80C0003A9584600F077F8E00061
:10755000ADF80C0003A9584600F070F82001ADF812
:107560000C0003A9584600F069F87F20ADF80C0024
:107570008DF80F5003A91B4800F060F8ADF80C40DF
:107580008DF80F5003A9504600F058F80B21022047
:1075900000F040F8019400208DF808008DF8099063
:1075A0008DF80A6001A8FFF737FE2046FFF70CFEB2
:1075B00028208DF800000F208DF801008DF80200C2
:1075C0008DF80360684600F063FD3946034800F01B
:1075D000C0F8BDE8FF9F000000100140000C014012
:1075E000001401400018014008B50121082001F0F5
:1075F000C5F80220ADF8000003208DF80200142029
:107600008DF803006946024800F018F808BD000034
:10761000000C014010B58A07120F0F23934021F090
:107620000304054921448C689C438C608B6890401E
:1076300003438B6010BD0000000001402DE9F041C4
:107640000022CC7804F00F03E40601D58C782343A4
:107650000C784FF00F0714F0FF0F4FF0010C1CD007
:1076600005680CFA02F40E882640A64211D1960055
:1076700007FA06F825EA080503FA06F848EA0505B8
:10768000CE78282E02D0482E02D002E0446100E0DD
:107690000461521C082AE4D305600A88FF2A1ED917
:1076A0004568002202F108060CFA06F40E8826400E
:1076B000A64210D1960007FA06F825EA080503FA53
:1076C00006F848EA0505CE78282E00D14461CE7828
:1076D000482E00D10461521C082AE3D34560BDE85E
:1076E000F0810000F0B5154C002801DAE36900E0F4
:1076F0006368C0F30346420D120185B2C0F301571F
:107700009540032F07D0C2020CD50322B240934309
:1077100043F0706209E023F07062636823F07063E5
:10772000636002E0AB4343F0706201B12A4300287A
:1077300001DAE261F0BD6260F0BD000000000140CE
:107740000246002092680A4200D001207047416141
:10775000704701617047C1607047002001F054BB61
:1077600010B501F06DFE70B12D20FFF7CDF801F0DE
:1077700067FE10B907E000F03BF901F061FE002858
:10778000F9D1012010BD002010BD00000549096895
:1077900089B201EBC0000449001D31F8100080B22D
:1077A00070470000505C00400060004005490968D7
:1077B00089B201EBC0000449801D31F81000C0F30C
:1077C00009007047505C00400060004004490968AF
:1077D00089B201EBC000034931F8100080B2704754
:1077E000505C00400060004010B50B480168001D6F
:1077F0000468001D0068084400280BD008220749CF
:1078000000F05CF9054920460422BDE81040103123
:1078100000F054B910BD0000E8F7FF1F220000205F
:10782000FEE7002904D0018841F48061018070479F
:10783000018821F4806101807047034600209A8A04
:107840001B8B1B041A4322F07F42914300D101207D
:107850007047002904D0018841F001010180704780
:10786000018821F0010101807047000010B50C492A
:1078700088420AD101214C05204600F071FF2046C4
:10788000BDE81040002100F06BBF01218C052046AF
:1078900000F066FF2046BDE81040002100F060BF08
:1078A00000540040002904D0018841F48071018017
:1078B0007047018821F4807101807047002904D04D
:1078C000018841F4007101807047018821F4007142
:1078D000018070470CB50246002000920A0F019209
:1078E00021F07F41019A002A03D0009A14320092BD
:1078F00003E0090C009A18320092009A12680A42BA
:1079000000D001200CBD000070B586B004460D46C5
:10791000A08820F03F0601A800F04CFF03982849FA
:10792000B0FBF1F189B20E43A680228822F0010259
:107930002280244B2A689A4209D85200B0FBF2F008
:1079400080B2042800D20420491C218423E0EB8863
:10795000A3F53F46FF3E0BD002EBC20303EB02123E
:10796000B0FBF2F080B240F48040020506D007E0A0
:1079700002EB4202B0FBF2F080B2F6E740F0010009
:1079800040F400404FF4967251434FF47A72B1FBC9
:10799000F2F1491C2184A083208840F0010020805E
:1079A00020884FF6F5310840A9886A8911430143C0
:1079B0002180A88929890843208106B070BD000074
:1079C00040420F00A0860100002A02D041F00101D0
:1079D00001E001F0FE010182704701827047000062
:1079E00002494CF6CC40086070470000003000406F
:1079F00002494AF6AA2008607047000000300040A3
:107A0000014948607047000000300040014988602B
:107A100070470000003000400149086070470000D6
:107A20000030004010B5144C2068017A02290AD0B9
:107A3000042908D006290BD0082021680872BDE867
:107A4000104000F083BDFEF747FD2068007AF4E7A0
:107A50004178052909D10178490606D1C07801F09D
:107A6000CDFE06480068006A8047054800688068C7
:107A700080470820E1E700004C010020540100206D
:107A80005001002070B50C4C00252571EF20A0603E
:107A900040F23F10E06005F08BFFFF2211461046D8
:107AA00006F0F6F900221146104606F0C9F904F175
:107AB00014000560657170BD94020020F0B50023CC
:107AC0000A2530263727002412E0B5EB107F04D9B1
:107AD00006EB107C01F813C003E007EB107C01F803
:107AE00013C0000101EB430C8CF801405B1CDBB2BE
:107AF0009342EAD3F0BD10B50C4605F0F1FE2046E6
:107B0000BDE8104005F0ECBE02494FF480700860FB
:107B1000704700001408014002494FF4807008606B
:107B200070470000100801400248016881F480712C
:107B3000016070470C08014038B50121042000F0B5
:107B40001DFE0121402000F019FE0121082000F057
:107B500015FE4FF48070ADF8000003258DF802503B
:107B600010248DF8034069460C48FFF767FD280292
:107B7000ADF800008DF802508DF8034069460848C2
:107B8000FFF75CFD0120ADF8000004208DF8030034
:107B900069460448FFF752FD38BD00000008014067
:107BA00000180140000C01400548817A0548002971
:107BB00002D00521016001E00121016000F0EEB971
:107BC0006C030020200100202DE9F05F6F484FF08A
:107BD000010AA0F800A000F065FDDFF8B481B8F953
:107BE0000200DFF8B091B9F902100C18002C00DA8D
:107BF00000244FF4805B40F6FF775C4500DB3C4699
:107C0000A1B24FF40020FEF7B9FA0A20FEF77CFE7D
:107C1000B8F90400B9F904100844002800DA00207B
:107C2000584500DB384681B24FF41020FEF7A6FA23
:107C30000A20FEF769FEB8F90600B9F906100D181A
:107C4000002D00DA00255D4500DB3D46A9B24FF46A
:107C50002020FEF793FA0A20FEF756FEB8F9080036
:107C6000B9F908100E18002E00DA00265E4500DB78
:107C70003E46B1B24FF43020FEF780FA0A20FEF7FC
:107C800043FEB8F90A00B9F90A100844002800DADE
:107C90000020584500DB384681B24FF44020FEF703
:107CA0006DFA0A20FEF730FE00F004FD00210846C0
:107CB00001F06EFB0A20FEF727FE0021012001F0F3
:107CC00067FB0A20FEF720FE0021022001F060FB86
:107CD0000A20FEF719FE0021032001F059FB0A20BB
:107CE000FEF712FE00214FF46020FEF747FA4FF432
:107CF00080712948FFF72DFD0A20FEF705FE01F0EF
:107D0000A5FA2648C0F800A0B8F8020070B9B8F883
:107D1000040058B9B8F8060040B9B8F8080028B906
:107D2000B8F80A0010B9B8F80C0068B10A20FEF7DC
:107D3000EBFDB8F81600C1B200F47F4001F066FF19
:107D4000FEF7B8FFFEF7CCFF102001F019FF144832
:107D500080F800A0134900240C70847012494FF47D
:107D60007A70086001210020FFF790FA00210120BD
:107D7000FFF78CFA00210220FFF788FA0021032088
:107D8000FFF784FA09480460BDE8F09FCC010020A9
:107D9000C803002000040020000C0140A4010020C2
:107DA000AC0100207C02002084020020A001002001
:107DB000FEE700002DE9F04105466420FEF7A4FD32
:107DC000384E394F70883880B188814200D9398067
:107DD000F0883988884200D93880308939888842CB
:107DE00000D9388070893988884200D93880B089B4
:107DF0003988884200D93880F489308AA04200D975
:107E00000446708AA04200D90446B08AA04200D934
:107E10000446706AFEF7FEFDFDB1012D2ED0052D42
:107E200039D00020FEF7C6FDFEF70CFFFEF72CFF51
:107E3000FEF7E0FF308DC0F30B00FFF727F8284670
:107E4000FFF748F90021FF22084606F021F81748FD
:107E5000008BBDE8F04106F00FB8706BFEF7AAFD8D
:107E60003888204301D1308D28B1706A002802DDA6
:107E7000FEF774FEDAE7FEF7E5FED7E7FEF784FDCE
:107E8000708928B1706A002802DDFEF767FECDE731
:107E9000FEF7D8FECAE70020FEF7BCFDFEF790FF14
:107EA000C4E70000C8030020B0020020CE0100207B
:107EB00038B504466420FEF727FD04F099FCEB2159
:107EC0000020FFF709F9204820A2416800910368CB
:107ED00040F231119B2005F065FF00234FF48B72B7
:107EE0000A211C4805F0FAF90020FEF763FD002086
:107EF000FEF790FDB4B1012C21D0FEF7A3FEFEF7F2
:107F0000C3FE2046FFF7E6F83220FEF76FFE0021A1
:107F1000FF22084605F0BCFF0F48008BBDE8384043
:107F200005F0AABF0D48008DC0F30B00FEF7AEFFB1
:107F3000FEF788FEFEF7A8FEFEF75CFFE1E7FEF71E
:107F400081FEFEF7A1FEDCE714020020425420204F
:107F50002020200038160108CE010020C803002090
:107F600001B5074A41F29413936004E09068411E02
:107F70009160FBD293600098411E0091F6D208BD3B
:107F8000140000200448012101600021021D11603D
:107F90000321016000207047405C00400CB50022C6
:107FA000019200923248016841F00101016041688C
:107FB000304B1940416001682F4B19400160016846
:107FC00021F480210160416821F4FE0141604FF4F9
:107FD0001F018160016841F4803101604FF4A063AA
:107FE000016801F4003100910199491C0191009947
:107FF00011B901999942F3D10168890302D5012190
:10800000009100E000920099012930D11B490A68D3
:1080100042F010020A600A6822F003020A600A684D
:1080200042F002020A604168416041684160416873
:1080300041F480614160416821F47C1141604168F4
:1080400041F4E8114160016841F08071016001680C
:108050008901FCD5416821F003014160416841F08C
:10806000020141604168C1F381010229FAD10CBDCE
:10807000001002400000FFF8FFFFF6FE0020024063
:10808000704770474FF440514FF0006000F03CB82B
:1080900070B50F23C27801260178002A1ED0144A39
:1080A000126802F4E062C2F5E062120AC2F104044E
:1080B000D3404578A54082781A402A43120101F145
:1080C000E02181F80024007800F01F018E40400973
:1080D000800000F1E020C0F8006170BD01F01F00D9
:1080E00086404809800000F1E020C0F8806170BD42
:1080F0000CED00E0024908430249086070470000A7
:108100000000FA050CED00E0024A1140014302486C
:108110000160704780FFFF1F08ED00E0BFF34F8F45
:1081200004480168044A01F4E06111430160BFF3AF
:108130004F8FFEE70CED00E00400FA0570B5022059
:10814000314D29684C780A78530606D002F07F0139
:1081500001292ED0022931D03AE0092C06D0052C75
:1081600007D0032C12D0012C18D031E001F09AFF77
:108170002EE0C8787F2805D8887818B9888808B98B
:10818000887A08B108203CE0002021E0CA78012A62
:108190001ED18988E1B901F0A1FF19E0CA78012A4E
:1081A00016D18A88A2B9497A890611D501F05CFEF8
:1081B0000EE00B2C0CD101F0EDFF09E0012C02D0F8
:1081C000032C03D004E001F04FFE01E001F098FF22
:1081D00030B10E49E0B2096849698847032802D0E6
:1081E00018B108200DE009200BE006200849002204
:1081F0000968084B89B2891C43F81120064A3021CE
:1082000011802968087270BD4C01002050010020C7
:10821000505C0040006000405C01002010B5104C34
:108220002068007A02280ED004280CD003280CD035
:1082300005280AD007280DD0082021680872BDE85B
:10824000104000F083B90820F7E7FEF7A1F9206895
:10825000007AF2E703480068C06880470820ECE72E
:108260004C01002050010020521C5208064B03EB29
:108270004101002A06D031F8043B20F8023B521E8F
:10828000002AF8D17047000000600040F0B4174C9D
:10829000174E94F83350002D02D0012D0ED01BE064
:1082A0006080A080E08020816081A081E1812182C6
:1082B0006182A1822285062030800DE0002161804C
:1082C000A180E18021816081A181E181218261829F
:1082D000A182218502203080636206490120087056
:1082E000054908702846F0BCFFF764BDC8030020AC
:1082F000CC0100201E0200201F020020F8B55448C7
:1083000041680091036853484B210288DE20FEF744
:108310004FFE514801680126002903DD01684F4ADC
:10832000116006604E4D00246C80AC80EC802C8186
:108330006C81AC81EC812C826C82AC822C856C626D
:1083400000F0A8F900F0B6F900F080FF0A20FEF76F
:10835000DBFA4FF480714348FFF7F9F900214FF43D
:108360000020FDF70BFF0A20FEF7CEFA00214FF4A4
:108370001020FDF703FF0A20FEF7C6FA00214FF494
:108380002020FDF7FBFE0A20FEF7BEFA00214FF485
:108390003020FDF7F3FE0A20FEF7B6FA00214FF475
:1083A0004020FDF7EBFE0A20FEF7AEFA00214FF465
:1083B0005020FDF7E3FE0A20FEF7A6FA00214FF455
:1083C0006020FDF7DBFE0A20FEF79EFA002108463A
:1083D00000F0DEFF0A20FEF797FA0021012000F0EE
:1083E000D7FF0A20FEF790FA0021022000F0D0FF0C
:1083F0000A20FEF789FA0021032000F0C9FF0A20B5
:10840000FEF782FAFEF740FC002001F0B9FB1648A7
:1084100004601648047016480480042085F8330070
:10842000FFF7C8FC134884600020FEF745FB1249A3
:108430000878072801D0092800D10E700F4802786B
:10844000072A02D00978092900D10670F8BD00007A
:108450000C020020FE0100207C0100208001002091
:10846000C8030020000C0140A40100207C02002071
:10847000CC010020AC0100201E0200201F020020C1
:1084800070B504460D460020FCF782F8FFF736FF72
:10849000094880F83340052C01D1FEF791FC074ACA
:1084A00000201070002D06D0BDE87040382202492F
:1084B000034804F04DBD70BDC8030020AC0100208E
:1084C00000F8070870B540F24B42904200D21046C7
:1084D000642900D96421154A154D1268B2FBF0F0E9
:1084E000401E82B26A80501E41436420B1FBF0F00E
:1084F000A88010480024048044808280C4800472D4
:108500000D4E0146304602F0C9F90A4970200A3181
:10851000088001204880A888C880022008818C81BA
:108520003046BDE8704002F075B90000300100200F
:1085300068020020720700200034014001490862EF
:108540007047000000000E427047000010B50B4855
:1085500090F82C10002001F085F909480068007A95
:10856000082805D1074A41021180074A10211180CD
:10857000092801D0002010BD012010BDA800002056
:108580004C0100205A0100205C0100201FB500F0C2
:1085900023F80020ADF804004BF6FF70ADF806009C
:1085A0005E20ADF808004FF48060ADF80A000001CD
:1085B000ADF80C0006480090064C01212046FFF75C
:1085C00048F969462046FFF79FF9FEF7B1F91FBD4C
:1085D000801A06000058004038B50121092000F03B
:1085E000CDF80121402000F0C9F80121880500F0F4
:1085F000A9F84FF44060ADF8000003248DF8024064
:108600001C208DF803000E4D69462846FFF716F82A
:108610004FF47051ADF800108DF8024010218DF824
:10862000031069460748FFF709F82021ADF800104C
:1086300004218DF8031069462846FEF7FFFF38BD78
:10864000000C01400018014010B5064C01202060CC
:10865000211D0020086002F029FF03202060002077
:1086600010BD0000405C004010B5012002F01EFF6C
:10867000012106480160064A00210160031D1960BE
:108680004FF4E05111800160002010BD405C0040BB
:108690005801002002494FF48070086070470000C4
:1086A0001418014002494FF48070086070470000C0
:1086B0001018014002494FF4007008607047000034
:1086C0001418014002494FF4007008607047000020
:1086D000101801400168002907D0074A9268891ADA
:1086E000090A090603D400207047012070470021C1
:1086F00001600120704700001C020020044A9268BB
:1087000011440160002901D101210160704700007E
:108710001C020020034A516821F44041014351608A
:108720007047000000100240054A002903D051693B
:1087300001435161704751698143516170470000A5
:1087400000100240054A002903D0D1690143D161DC
:108750007047D1698143D161704700000010024029
:10876000054A002903D0116901431161704711695D
:10877000814311617047000000100240054A002942
:1087800003D091690143916170479169814391617F
:108790007047000000100240014908607047000067
:1087A000400442420248416A41F080714162704790
:1087B0000010024010B5264A516801F00C01254B0B
:1087C000002927D0042927D0082927D00360516821
:1087D00001F0F0010909204B5C5C0168E140416057
:1087E000546804F4E064240A1C5D21FA04F48460F3
:1087F000546804F46054E40A1B5DD940C1605268B7
:1088000002F44042920B144B1B1F9A5CB1FBF2F135
:10881000016110BD0360DAE70360D8E7516801F435
:108820007011536803F48033022404EB914133B197
:1088300053689B0307D5094B59430160C7E7074BB2
:1088400059430160C3E7034B59430160BFE7000090
:108850000010024000127A006201002000093D0071
:10886000034600205909094A01290AD002290AD0E1
:10887000516A03F01F02012393400B4200D00120F4
:1088800070471168F5E7116AF3E700000010024035
:10889000084900220A7001F82029012805D004287F
:1088A00002D1052081F820007047012081F82000C6
:1088B0007047000020100240014908607047000026
:1088C0003C04424202490A6A02430A6270470000BD
:1088D000001002400149086070470000D800424281
:1088E00002490A8882430A80704700000428004039
:1088F00010B501214FF0C050FFF724FF0120FFF712
:108900001DFEFBF7AEFA0120FFF7C2FF01E0FFF703
:108910006FF84120FFF7A4FF0028F8D04FF48070D3
:10892000FFF7D0FF0120FFF7C7FF00F00FF900F0BD
:1089300005F90121084600F083F800F0FFF847F63A
:10894000FF7000F0EBF8BDE8104000F0F7B8000051
:108950000248018841F0100101807047042800405E
:108960000248018821F0100101807047042800406E
:10897000064908880B1D1A880988884203D0188880
:1089800040EA0140704742EA004070471828004022
:1089900006490988C2B21140044A121F12880242D5
:1089A00002D009B101207047002070470428004020
:1089B00010B50120FFF7ECFF00282BD00120FFF7B6
:1089C0008FFF1549012008601449086014490A689E
:1089D000521C0A601349097819B913490A68521CD4
:1089E0000A601249086012480168002902DB016828
:1089F000491E01600F48007830B90F48016800290E
:108A000002DB0168491E016000F098F8FAF7ACFB40
:108A10000A49088010BD0000840100208C0100205C
:108A2000900200201C0200203002002008000020DC
:108A3000740100201D0200207C0100200A02002099
:108A4000054A002903D0118801431180704711881D
:108A500081431180704700000028004010B500F0ED
:108A600039F80420FBF706FA4AF2A554A04216D0C2
:108A7000FFF73EFF154802220270E02242700146D5
:108A80004022812002F026FE012000F06FFF104AF4
:108A90000020107021460420FBF7F6F90EE07B2041
:108AA000FFF7DEFE10B97A20FFF7DAFE00F04EF88D
:108AB00001210846FFF7C4FF00F040F8FFF772FEFF
:108AC000FFF756FFBDE8104002F09EB88803002073
:108AD0000000002008B54FF4C060FFF70BFB032037
