:020000040800F2
:10300000500D002045310008A9860008497E0008BF
:10301000D98300080945000833C1000800000000FA
:10302000000000000000000000000000739A00088B
:1030300021690008000000007D8B0008F9B000083D
:103040005F3100085F3100085F310008E58F00083C
:103050005F3100085F3100085F3100085F31000810
:10306000B97700085F310008D57700083963000898
:103070005F3100085F3100085F3100085F310008F0
:103080005F3100085F3100080D3B00085F31000828
:1030900051C000085F3100085F310008D777000891
:1030A0005F3100085F3100085F3100085F310008C0
:1030B0005F3100085F3100085F3100085F310008B0
:1030C0005F3100085F3100085F3100085F310008A0
:1030D0005F3100085F3100083DBC00085F31000827
:1030E0006D7700085F31000869BE00085F31000895
:1030F0005F3100085F3100085F3100085F31000870
:103100005F3100085F3100085F3100085F3100085F
:103110005F3100085F3100085F3100085F3100084F
:103120005F3100085F3100085F3100085F3100083F
:10313000DFF80CD000F096FC00480047E1D700080B
:10314000500D00200648804706480047FEE7FEE78E
:10315000FEE7FEE7FEE7FEE7FEE7FEE7FEE7FEE747
:1031600055B10008313100080649074A0868504344
:1031700043F2390210440860400870470149086072
:1031800070470000C40200206D4EC64140EA0103B2
:103190009B0703D009E008C9121F08C0042AFAD20D
:1031A00003E011F8013B00F8013B521EF9D27047D1
:1031B000421C10F8011B0029FBD1801A7047F0B4A3
:1031C00080EA0102D40F4200B2EB410F02D2024664
:1031D000084611464A0042D0C30DDDB2C1F3C752C2
:1031E000AD1A202D35DAC1F3160141F4000204B105
:1031F0005242C5F1200602FA06F12A411044B3EB0F
:10320000D05F23D0C4B1012DA0EBC35009DCF0BCCA
:103210004FF0004202EAC352DBB200F5000000F0BA
:1032200066BB400000F1807000EBC350A0F18070DD
:1032300040EAD170490009E0490841EAC071A0EBB9
:10324000C35000F50000400800EBC350F0BC00F094
:1032500045BB6142012202EB4101001BF6E7F0BCD5
:10326000704781F00041AAE780F00040A7E780EABC
:10327000010210B502F00043400022D04A001FD0E6
:10328000010E01EB1261C0F35600C2F3560240F486
:10329000000042F40002A0FB022000047F39140465
:1032A00000D0401C50EA124001D44000491EC2B276
:1032B0000C0604EBD010401C4008802A02D003E02A
:1032C000002010BD20F00100002900DA0020184382
:1032D00010BD30B480EA010202F0004530F0004237
:1032E00021F0004013D090B1C30DD40DC2F31601EC
:1032F000C0F31600E41A41F4000140F400027D34EA
:10330000914201D3641C00E04900002C02DA30BC79
:10331000002070474FF400000023914201D3891A26
:10332000034340084FEA4101F7D151B1914202D124
:103330004FF0004105E002D24FF0010101E06FF0D3
:10334000010103EBC450284430BC00F0C7BA42006E
:1033500005D0C0F3C7525242914201DC00207047B1
:1033600000EBC15070472DE9FE4F804681EA030013
:10337000C00F0C46009021F0004123F00045B8EB4F
:103380000200A94105D24046214690461C460B4604
:10339000024623F00040104347D0270DC7F30A0030
:1033A000C3F30A510290401A019040286BDAC3F32C
:1033B000130040F4801B0098924620B10023D2EB0A
:1033C000030A63EB0B0B01985946C0F140025046CB
:1033D00000F053FA06460D4650465946019A00F051
:1033E0006BFA10EB08006141002487EA115284EA6D
:1033F000E7731A4340D0009A62B3019A012A4FEA58
:10340000075215DC001B61EB02014FF0004202EA9B
:103410000752CDE90042001C41F5801132462B468F
:1034200000F0A2FA03B0BDE8F08F40462146F9E76C
:10343000001B61EB0201001C41F5801300185B4189
:103440002018A2F5001747EB030140EAD570B61922
:103450006D4111E06D084FEA360645EAC0754FEA46
:103460000752001B61EB0201001C41F58011490865
:103470004FEA30000019514132462B4603B0BDE8F7
:10348000F04F00F062BA0098012240000023D0EB18
:10349000020263EBE073009821464FEAE074B8EB58
:1034A000000061EB0401E9E783F000435BE781F092
:1034B000004158E72DE9FE4F81EA030404F000447F
:1034C00021F0004100944FF0000B23F0004350EA3C
:1034D00001045ED052EA03045BD0C3F30A54C1F383
:1034E0000A552C44A4F2F3340194A0FB0254C1F316
:1034F000130141F48011C3F3130343F4801301FB60
:10350000024400FB034E840A970A44EA815447EAC6
:103510008357A4FB076802958D0A05FB07854FEAD0
:10352000932C04FB0C542705029D4FEA065847EAEA
:103530001637B5EB08056EEB070C870E920E47EABF
:10354000811742EA8312A7FB0201B6EB0B0164EB81
:1035500000042B0D43EA0C335E1844EB1C50DA4692
:103560005146E7FB0201C5F313044FEA0B3343EA6C
:1035700014534FEA0432019C43EA0603A4F10C04FD
:103580000294009CCDE900B400F0EEF903B0BDE870
:10359000F08F00200146F9E72DE9F04D81EA0304A0
:1035A00004F0004B21F0004514464FF0000A23F0D0
:1035B000004150EA050220D054EA01021DD0C5F3B3
:1035C0000A570246C5F31303C1F31300C1F30A56A9
:1035D00040F4801543F48013A7EB0608101BD64671
:1035E00008F2FD3873EB050002D308F1010801E091
:1035F00092185B41B8F1000F03DA00200146BDE8E4
:10360000F08D00204FF48011064684460EE0171B13
:1036100073EB050705D3121B63EB050306434CEA66
:10362000010C49084FEA300092185B4150EA01074B
:10363000EDD152EA030012D082EA040083EA0501C8
:10364000084305D0101BAB4106D20122002306E03F
:1036500000224FF0004302E06FF0010253101AEB1A
:1036600006004CEB085110EB0A0041EB0B01BDE8E2
:10367000F04D00F06AB9C10F80EAE0700844CA0753
:103680009623002100F033B996230022114600F062
:103690002EB90EB5C10F80EAE0700844CA070021B8
:1036A00040F233438DE80E000A460B4600F05CF909
:1036B00003B000BD0EB540F2334102910021CDE9C7
:1036C00000110A460B4600F04FF903B000BD00F0B0
:1036D000004220F00040C10DC0F3160040F400008D
:1036E0007F2901DA00207047962903DCC1F1960199
:1036F000C84001E096398840002AF4D04042704723
:1037000020F00040C10DC0F3160040F400007F29F6
:1037100001DA00207047962903DCC1F19601C84008
:10372000704796398840704770B5C1F30A5201F06E
:1037300000450024C1F3130140F2FF3341F480112E
:103740009A4201DA002070BD40F233439A42A2F25D
:10375000334203DC524200F09FF800E090402C43DB
:10376000F1D0404270BD00F0004230F000400AD07D
:10377000C10D01F56071C0F3160042EA0151C208A3
:1037800040071143704700200146704701F0004395
:1037900030B421F0004150EA010206D00A0DA2F532
:1037A0006072C1F31301002A02DC30BC00207047B4
:1037B000440F44EAC104C100E01830BC00EBC25021
:1037C00000F08CB8002801DBC0F10040002901DBCB
:1037D000C1F1004181427047002801DBC0F1004087
:1037E000002901DBC1F100418842704730B50B462A
:1037F000014600202022012409E021FA02F59D4221
:1038000005D303FA02F5491B04FA02F52844151EF4
:10381000A2F10102F1DC30BD2DE9F05F0546002088
:1038200092469B4688460646814640241BE0284631
:1038300041464746224600F02FF853465A46C01AE2
:10384000914110D311461846224600F016F82D1A61
:1038500067EB01084F4622460120002100F00DF8D9
:1038600017EB00094E41201EA4F10104DFDC48469D
:1038700031462A464346BDE8F09F202A04DB203A21
:1038800000FA02F1002070479140C2F1200320FAB3
:1038900003F3194390407047202A04DB203A21FAB1
:1038A00002F00021704721FA02F3D040C2F1200259
:1038B0009140084319467047202A06DBCB17203A6F
:1038C00041FA02F043EAE07306E041FA02F3D04025
:1038D000C2F1200291400843194670470029A8BF51
:1038E0007047401C490008BF20F00100704710B429
:1038F000B0FA80FC00FA0CF050EA010404BF10BCDE
:10390000704749B1CCF1200421FA04F411FA0CF10A
:1039100018BF012121430843A3EB0C01CB1D4FEA43
:1039200000614FEA102042BF002010BC704700EB3E
:10393000C35010440029A4BF10BC7047401C49006C
:1039400008BF20F0010010BC704710B5141E73F1C1
:10395000000408DA401C41F1000192185B411A434F
:1039600001D120F0010010BD2DE9F04D92469B469B
:1039700011B1B1FA81F202E0B0FA80F22032904641
:10398000FFF77BFF04460F4640EA0A0041EA0B01BD
:1039900053465A46084313D0114653EA010019D042
:1039A000C8F140025046FFF777FF05460E465046E5
:1039B00059464246FFF761FF084305D0012004E065
:1039C00020463946BDE8F08D0020054346EAE07602
:1039D0002C4337430A986305E40AA0EB0800002251
:1039E000FD0A44EA47540A3002D500200146E9E7BF
:1039F000010510196941DDE9084500196941BDE873
:103A0000F04DA2E7C1F30A52C1F3130140F2FF33B4
:103A100041F480119A4202DA00200146704740F2D8
:103A200033439A42A2F2334202DC5242FFF734BFE0
:103A3000FFF723BF30B5041E71F1000404DB4FF023
:103A40000044404264EB0101141E73F1000405DBE5
:103A50001C464FF00043524263EB0403994208BFF7
:103A6000904230BD064C074D06E0E06840F001038F
:103A700094E8070098471034AC42F6D3FFF75CFB9C
:103A8000043D0108243D010870B521F000430343C3
:103A90000CD0C1F30A550024D5EB040564EB0403F4
:103AA000D617AD1AB34102DB0020014670BD2018C5
:103AB00041EB025170BD70B58C1810F8015B15F028
:103AC000070301D110F8013B2A1106D110F8012B90
:103AD00003E010F8016B01F8016B5B1EF9D12B07B5
:103AE00005D40023521E0DD401F8013BFAE710F86B
:103AF000013BCB1A921C03E013F8015B01F8015B58
:103B0000521EF9D5A142D8D3002070BD10B5084C83
:103B10000221204600F055F810B106490120086046
:103B20002046BDE810404FF4087100F005B80000D1
:103B300000240140A0010020090AC9430160704728
:103B4000002904D0816841F00101816070478168DB
:103B500021F0010181607047002904D0816841F49F
:103B6000807181607047816821F480718160704745
:103B7000426822F46042491E42EA41314160704786
:103B8000002904D0416841F40061416070474168F8
:103B900021F400614160704708B50820ADF80000CD
:103BA00000208DF803006946014804F05BF808BD69
:103BB00000100140014600208968490700D5012016
:103BC00070470246002012680A4200D00120704768
:103BD000014600208968090700D5012070470000D0
:103BE00010B542680E4B1A400C790B6842EA042269
:103BF0001343436082680B4B1A40D1E902432343CD
:103C00004C7942EA440213438360C26A22F4700290
:103C1000097C491EC9B242EA0151C16210BD0000CF
:103C2000FFFEF0FFFDF7F1FF08B50B208DF8000057
:103C300000208DF801008DF8020001208DF80300AE
:103C4000684604F039FD08BD10B54FF4804005F01A
:103C50007BF80121084605F081F8BDE810400121FC
:103C600040F2112005F0A4B870B5072609290AD939
:103C7000C568A1F10A0404EB4404A640B543A3407F
:103C80001D43C56007E0056901EB4104A640B5434B
:103C9000A3401D4305611F23072A09D2446B521E0E
:103CA00002EB820293409C4391400C43446370BDFD
:103CB0000D2A09D2046BD21F02EB820293409C436F
:103CC00091400C43046370BDC46A0D3A02EB82025A
:103CD00093409C4391400C43C46270BD816841F0A5
:103CE000080181607047002904D0816841F4A00177
:103CF00081607047816821F4A0018160704781680C
:103D000041F00401816070474FF40061014804F004
:103D10002BB8000000100140F8B5002000902B4C9B
:103D20004FF4805565606E01294F05E06268531EAF
:103D3000636001D20020F8BD3146384604F0DEF859
:103D40000028F3D10121384604F0C0F86560214E07
:103D500005E06268501E606001D20020F8BD314667
:103D6000384604F07EF80028F3D0012218213846A6
:103D700004F03EF96560164E143605E06168481E91
:103D8000606001D20020F8BD30888007F6D5398800
:103D9000384621F48061398072B60D49183109889E
:103DA0000091012104F09EF862B6656005E060684C
:103DB000411E616001D20020F8BD30884006F6D572
:103DC000034810300088C0B2F8BD000098020020FF
:103DD00000540040010003002DE9F04105F0ACFE65
:103DE00005F04EFD0A2002F09DFD104F00243C60BE
:103DF0000F4E0125356029020E4803F0BEFF0A2050
:103E000002F090FD0C4804800C4A03211170B0F9B7
:103E1000000005F071FF0A494FF47A700860094804
:103E200005703D603460BDE8F0810000A401002011
:103E3000A0010020000C01408E0200208C02002016
:103E400094020020AC01002070B504464FF0C0552C
:103E50000121284604F090FF012004F089FE05F0BE
:103E600087F921784FF4616041436078C0EB00101E
:103E700001EB8000A178084405F05AF905F078F9C3
:103E80000021284604F078FFBDE87040002004F0CF
:103E90006FBE10B5012004F099FFBDE8104000206E
:103EA00004F094BF08B503490844009000980088C6
:103EB00008BD0000006C004008B5034A10440090A3
:103EC0000098016008BD0000006C00402DE9F04F33
:103ED000B1B0002017906C4809F0A8FB17909DF82E
:103EE0005C006A4C012500B1E561E069012802D05F
:103EF00002280CD015E065484FF49671103004F09C
:103F000017FF00F045FBE069401CE06109E05F48F5
:103F1000103004F0F9FE20B100F024FBE069401CF1
:103F2000E0619DF85C000A280BD2DFE800F00A9EF1
:103F3000666C7278050D7CA255A00AF0C5FF0AF0E8
:103F400073FE31B0BDE8F08F0AF0C0FE4C2153483B
:103F50000AF0C8FFDFF84481D8F83000FFF703FC0F
:103F600004460D46D8F82C00FFF7FDFB06460F4629
:103F7000D8F82800FFF7F7FB81468A46D8F82400D6
:103F8000FFF7F1FBD8F84830D8F844C0D8F840B073
:103F9000D8F83C20CDE913BC15931292D8F83820FC
:103FA000D8F83430CDE90A9ACDE90C67CDE9103262
:103FB000CDE90E45CDE90801D8F82000D8F81C104D
:103FC000D8F81820D8F81430CDE90332CDE905101F
:103FD000D8F81010D8F80C20D8F80800CDE9012145
:103FE0000090D8F80430D8F800202D4918A808F01F
:103FF0001BF918A80AF068FFA3E72AA00AF064FFDB
:104000000AF032FE9DE72AA00AF05EFF0AF0D8FE11
:1040100097E72AA00AF058FF0AF0DCFE91E72AA0F1
:104020000AF052FF8DE72BA00AF04EFF174C203408
:10403000B4F902002A4D0A280BDCB4F902004FF44F
:104040004C7148430A2190FBF1F080B2E88300F004
:10405000B7FAB4F904001628CEDCA088A885382267
:104060001F49204809F056FC6BE71FA00AF02CFFFF
:1040700067E705200AF08CFE1E4909200880E560EC
:104080001DA00AF021FF5CE76E070020440200201B
:10409000544C534D0D0A0D0A00000000A0040020EE
:1040A000C03C0108544C53540D0A0D0A0000000096
:1040B000544C5354410D0A0D0A000000544C535403
:1040C0004F0D0A0D0A000000544C43540D0A0D0A0E
:1040D00000000000544C53530D0A0D0A000000006C
:1040E000D803002000F80708544C534552520D0ADB
:1040F0000D0A0000D4010020544C4453570D0A0D02
:104100000A00000008B5012142F2110004F050FE3F
:104110004020ADF8000003208DF8020018208DF833
:1041200003006946064803F09DFD32214FF47A6092
:1041300004F0E2FC002000F043FA00F013FA08BD9E
:10414000001001402DE9F04780460D462F0ADFF8A8
:10415000DCA00121504603F0B9FE354C4FF48056E7
:104160006660DFF8D09006E06168491E616002D2A7
:104170000120BDE8F0874946504603F072FE002852
:10418000F2D00022C821504603F032FF6660DFF80B
:10419000A89005E06168481E606001D20120E8E750
:1041A0004946504603F05DFE0028F3D04146504694
:1041B00003F027FFDFF8808008F1020805E061685E
:1041C000481E606001D20120D3E74146504603F00B
:1041D00048FE0028F3D03946504603F012FF6660CF
:1041E000474605E06168481E606001D20120C0E7D3
:1041F0003946504603F035FE0028F3D0E9B2504668
:1042000003F0FFFE666005E06268531E636001D242
:104210000120AEE73946504603F023FE0028F3D0D4
:104220000121504603F05EFE0020A2E7005400404A
:104230009802002001000300820007002DE9F047EA
:104240000025464881681E2973D90178002970D05D
:104250000027876003F095FD05F0EDF80546012D78
:104260002FD02846FFF707FA3D49FFF700F83D49F0
:10427000FFF72FF804463C4E74603C480AF014FBEC
:104280003B492046FEF7EDFFDFF8E8904946FEF790
:10429000EEFF3949FFF71DF83849FEF790FF044655
:1042A0003748B0F800803748844214DC4FF4784037
:1042B0000AF0D8FA0120307014F1FF4F1BD300240C
:1042C00019E000F07DF8052002F02CFB07F06AFFF2
:1042D0000120BDE8F0872C48844204DA4FF6E070F4
:1042E0000AF0C0FA03E04FF4FC600AF0BBFA377042
:1042F0004C4500DD4C4605F09BF8FFF7C5F9234F10
:104300003946FEF7AEFF2249FEF7B1FF3946FEF708
:10431000E0FF204A716840F2311691420ADD1E49E1
:10432000884207DA002332460A211CA009F0B8FCB3
:104330000FE011E02046FFF716FA02460B461CA1DB
:104340001E4807F071FF0023324626211B4809F062
:10435000A7FC40460AF086FAA8B2BAE79802002005
:10436000CDCCBC4100FF7F47280900207A300108EE
:10437000000040410000C84220D89D400000A040FD
:1043800008020020000020410000044200FEFF4619
:104390009A991940F628864117B7D1382020202055
:1043A000202020202020202020202020200000006D
:1043B00025322E306625252020000000CC0200206A
:1043C0001FB5104C204603F065FD00F01FF80021DA
:1043D000ADF804104BF6FF71ADF80610C821ADF82A
:1043E00008102115ADF80A100901ADF80C100649A6
:1043F00000910121204603F040FD6946204603F06C
:1044000097FD1FBD00540040801A060008B5012129
:10441000092004F0CDFC0121480504F0ADFCC020CA
:10442000ADF8000003208DF802001C208DF8030079
:104430006946024803F016FC08BD0000000C01406C
:104440002DE9F04706460D46DFF8AC8001214046D5
:1044500003F03CFD294C4FF480576760DFF8A090D3
:1044600006E06168481E606002D20120BDE8F08766
:104470004946404603F0F5FC0028F2D00022C8214E
:10448000404603F0B5FD67601E4F05E06168481EB9
:10449000606001D20120E9E73946404603F0E1FCC3
:1044A0000028F3D03146404603F0ABFD154EB61C54
:1044B00005E06168481E606001D20120D6E7314600
:1044C000404603F0CEFC0028F3D02946404603F0D6
:1044D00098FD05E06268531E636001D20120C5E7C4
:1044E0003146404603F0BDFC0028F3D00121404690
:1044F00003F0F8FC0020B9E70054004098020020C7
:104500000100030082000700FEE7000010B505F07F
:10451000B1FA18B32D2002F005FA05F0ABFAE8B1B4
:1045200041F288310E4804F003FC11E003F074FD01
:104530000B4804F0E9FB10B907E003F06DFD05F04E
:1045400099FA0028F9D1052010BD322002F0EAF9CD
:1045500005F090FA0028E9D1012010BD002010BD1F
:104560003C02002010B5002000F02AF8064C002183
:10457000204606F023FE0021204606F013FE0349E4
:104580000120087010BD00000034014078020020B6
:1045900010B50848C08B00F013F8074C01212046E5
:1045A00006F000FE0121204606F008FE0349002027
:1045B000087010BDD80300200034014078020020AC
:1045C0004FF44C71884200D9084601464FF47020E0
:1045D00001F0E4BDC1B2000A40EA012070470000CA
:1045E0002DE9FC5FF848006800287DD0F748006896
:1045F000002879D0F6480168491C0160016800254F
:104600000F2902D9056003F0A3FD00210020F14A23
:1046100032F810301944401C4028F9DBEE48C1F351
:104620008F170780DFF8B49399F80020E949EC4E22
:104630008031DFF8B08301F130004AB198F80020F2
:1046400021F8127098F8001000EB41018F8006E00D
:10465000327821F81270317800EB41018F80DFF859
:1046600074B30BF1B00BBBF80400FFF70DF8DE4993
:10467000FEF7FDFDDD49FEF72CFE8246ABF120047E
:10468000C4F800A0BBF80600FEF7FEFFD649FEF70F
:10469000EEFDD649FEF71DFE60600190BBF80800F4
:1046A000FEF7F2FFD049FEF7E2FDD049FEF711FE1A
:1046B000A0600090BBF80A00FEF7E6FFCA49FEF7CB
:1046C000D6FDCA49FEF705FE8346C4F80CB099F83A
:1046D0000000C74C70B3DFF81CA39AF80000002854
:1046E00027D0C548006800E07BE2052821D1618918
:1046F000B848022280380270ED2242703A0A827075
:10470000C7700A0A02714171B168090A8171B16802
:10471000C17198F80010017299F8001041720146B9
:104720004022812007F0B8FC012005F0D1FD8AF875
:10473000005089E04FF07F515046FEF798FDAF4999
:10474000FEF7C7FDFFF70FF8AD4AAE4BFEF724FFAB
:10475000FFF71CF89F4FB03778614FF07F510198F9
:10476000FEF785FDA849FEF7B4FDFEF7FCFFA44A5D
:10477000A44BFEF711FFFFF709F8B8614FF07F5126
:104780000098FEF774FDA149FEF7A3FDFEF7EBFFCD
:104790009B4A9C4BFEF700FFFEF7F8FFF8614FF0D5
:1047A0007F515846FEF763FD9949FEF792FDFEF7EB
:1047B000DAFF934A934BFEF7EFFEFEF7E7FF38620E
:1047C00094480088B88594480AEB000193488142D8
:1047D00002D24FF0010001E04FF00000B87002D2A9
:1047E0004FF0010101E04FF0000100EA0100B87054
:1047F00002D24FF0010101E04FF0000100EA010098
:10480000B87002D24FF0010101E04FF0000100EA60
:104810000100B870DFF8DCA19AF80000A0B176487A
:104820000068052810D102203870DD2078703078BB
:10483000F87068494022B031812007F02DFC01203A
:1048400005F046FD8AF8005099F80000744F4FF4C7
:10485000402A00287ED1B0680028FBD13078401C67
:1048600030703078072800D93570307880070ED046
:10487000307800F0030001281AD0307800F00300EF
:10488000022826D03078C043800733D042E001218F
:10489000002003F00FF80021012003F00BF80021A5
:1048A000022003F007F80021032003F003F831E0B1
:1048B0000021084602F0FEFF0121084602F0FAFF3F
:1048C0000021022002F0F6FF0021032002F0F2FF97
:1048D00020E00021084602F0EDFF0021012002F057
:1048E000E9FF0121022002F0E5FF0021032002F090
:1048F000E1FF0FE00021084602F0DCFF002101206B
:1049000002F0D8FF0021022002F0D4FF0121032091
:1049100002F0D0FF31784FF400204FF410224FF412
:1049200020234FF4302C21B1317891B33178032911
:1049300078D8B188D1B1B08801281BD0B0880228BE
:104940001DD0B08803281FD0B088042822D0B0889A
:10495000052800E0BBE022D0B088062824D0B0882B
:10496000072826D0B088082828D0A9E0618801F05F
:1049700015FCA5E0A188104601F010FCA0E0E1883C
:10498000184601F00BFC9BE02189604601F006FC13
:1049900096E047E06189504601F000FC90E0E18933
:1049A000002005F00FF88BE0218A012005F00AF8BD
:1049B00086E0618A022005F005F881E0A18A0320E3
:1049C00005F000F87CE00000A4010020A001002018
:1049D000A8010020280800209C010020AE01002032
:1049E0008C020020AD0100200000404000F07F4517
:1049F000D80300200000002020010020DBF97E3ECB
:104A00009A9999999999E13F0000CC415C8F1240A5
:104A10009A991141B2010020333333C23333730208
:104A2000B001002098F80010042949D398F800102C
:104A3000072945D8B188C1B1B088012819D0B088FC
:104A400002281BD0B08803281DD0B08804281FD0AE
:104A5000B088052821D0B088062823D0B088072840
:104A600025D0B088082827D02AE0002101F096FB45
:104A700026E00021104601F091FB21E000211846BC
:104A800001F08CFB1CE00021604601F087FB17E081
:104A90000021504601F082FB12E00021084604F09C
:104AA00091FF0DE00021012004F08CFF08E00021BF
:104AB000022004F087FF03E00021032004F082FFBE
:104AC0003888B060B068642801DA6420B060B068EB
:104AD000A0BB99F8000088B398F80000401C88F843
:104AE000000098F80000072801D988F8005098F8CD
:104AF0000000800711D098F8000000F003000128A2
:104B00001DD098F8000000F00300022828D098F883
:104B10000000C043800734D043E00121002002F0B0
:104B2000C9FE0021012002F0C5FE0021022002F092
:104B3000C1FE0021032002F0BDFE32E04FE0002163
:104B4000084602F0B7FE0121084602F0B3FE00213C
:104B5000022002F0AFFE0021032002F0ABFE20E0B5
:104B60000021084602F0A6FE0021012002F0A2FE6C
:104B70000121022002F09EFE0021032002F09AFE95
:104B80000FE00021084602F095FE0021012002F00E
:104B900091FE0021022002F08DFE0121032002F08F
:104BA00089FE98F80010104831B198F8001031B122
:104BB00098F80010032902D80088608109E098F86D
:104BC0000010042905D398F80010072901D840885F
:104BD00060816189504601F0E1FA3888B06003488D
:104BE0000560BDE8FC9F0000B8010020A001002086
:104BF0002DE9F047A848006800287DD0A74D286817
:104C0000002879D0A6480168491C01600168002489
:104C10000F2902D9046003F09BFA00210020A14A69
:104C200032F810301944401C4028F9DB88099E49AD
:104C30000880DFF878829B4998F80020803121F8BD
:104C40001200B8F9022001F1600707EB4202D0819F
:104C500098F8000031F81000FEF716FD814698F82C
:104C60000010A7F1300000EB4100B0F92400FEF77E
:104C700002FD4946FEF7A3FADFF83492484500DD0D
:104C800048468C49FEF7F3FA4946FEF722FB814677
:104C90008948B8F9021050F821104846FEF792FDF5
:104CA00005D21421B8F9020004F05CFF0FE082483D
:104CB000B8F90210143850F821104846FEF78CFD60
:104CC00005D26FF01301B8F9020004F04BFFB8F8F9
:104CD00002000022401C80B2494601F0DBFED8F8F9
:104CE000080000287ED12EB1B8F90200384441797D
:104CF000491C4171714E00E048E030784FF00209E4
:104D000088B16F48006805280DD187F80090DF2032
:104D1000787064494022E031812007F0BDF901201C
:104D200005F0D6FA3470B8F80200401CA8F802006A
:104D3000B8F90200012604282CDDA8F80240B8F8D2
:104D40000600401CA8F80600B8F90600142821DB6C
:104D500005F056F97879042801D87C7100E07E715D
:104D6000B879042801D8BC7100E0BE71F879042834
:104D700001D8BC7100E0FE71387A042801D83C7279
:104D800000E03E72787A042802D87C72BDE8F08791
:104D90007E72FBE7B8F80210032021B3B8F80210C6
:104DA000012923D0B8F80210022922D0B8F8020055
:104DB000032821D088F8004098F8000080071ED012
:104DC00098F8000000F00300012829D098F80000AE
:104DD00000F00300022834D098F80000C043800798
:104DE00040D04FE056E088F80000E5E788F80090F2
:104DF000E2E788F80000DFE788F80060DCE70121DF
:104E0000002002F057FD0021012002F053FD002197
:104E1000022002F04FFD0021032002F04BFD31E0A3
:104E20000021084602F046FD0121084602F042FD3D
:104E30000021022002F03EFD0021032002F03AFD95
:104E400020E00021084602F035FD0021012002F09B
:104E500031FD0121022002F02DFD0021032002F08E
:104E600029FD0FE00021084602F024FD0021012069
:104E700002F020FD0021022002F01CFD0121032090
:104E800002F018FDB8F9020004F036FF4FF47A7012
:104E9000C8F808002C6079E7A4010020A0010020D8
:104EA000A8010020280800209C0100208C0200207E
:104EB00000F07F4500004040382901080000002034
:104EC000200100202DE9F84F002000904BF6BF771D
:104ED00048F28008614E624D40F68F7ADFF8849187
:104EE00048F60F7B604C2CE0088800F00F0089F832
:104EF000000078B304EB8001D1F8002C0092BDF8DB
:104F0000002012040AD5D1F8002C02EA0A02C1F8E6
:104F1000002C5649401E51F820008047BDF8000083
:104F200000060ED599F8000004EB8001D1F8002CA2
:104F300002EA0B02C1F8002C4D49401E51F8200036
:104F400080474648443000684A4908800004CBD472
:104F5000BDE8F88FFFE730682880288800F030002F
:104F60006880288800F4405028803068384080F4F9
:104F7000005080F0200040EA080030600888C00639
:104F800020D4306800EA0B00306003F05FF830682E
:104F900038402988C90401D580F4805029888904C3
:104FA00001D580F400506988C90601D580F0100051
:104FB0006988890601D580F0200080B240EA0800A7
:104FC0003060C5E730680090BDF80000000520D5CE
:104FD000306800EA0A00306005F0BEFB30683840F7
:104FE0002988C90401D580F480502988890401D515
:104FF00080F400506988C90601D580F010006988E6
:10500000890601D580F0200080B240EA08003060B7
:105010009EE7BDF80000000493D5306800EA0A005E
:10502000306003F00FFC306838402988C90401D58E
:1050300080F480502988890401D580F40050698863
:10504000C90601D580F010006988890601D580F075
:10505000200080B240EA0800306079E7005C004040
:105060005A01002048010020005000406400002048
:10507000480000203E0000202DE9F04704460D4680
:1050800003F022FE4FF4002A0021504601F086F87A
:105090000A2001F047FC4FF410290021484601F096
:1050A0007DF80A2001F03EFC4FF420280021404604
:1050B00001F074F80A2001F035FC4FF4302700218C
:1050C000384601F06BF80A2001F02CFC4FF4402622
:1050D0000021304601F062F80A2001F023FC03F0C1
:1050E00003FE0021084604F06DFC0A2001F01AFCC2
:1050F0000021012004F066FC0A2001F013FC0021CD
:10510000022004F05FFC0A2001F00CFC00210320C7
:1051100004F058FC0A2001F005FC012C15D0022CEB
:105120001AD0032C1FD0042C24D0052C29D0062CF7
:105130002ED0072C33D0082C38D0092C3DD003F0CA
:10514000C3FDBDE8F04703F0CFBD03F0C5FD294620
:10515000504601F023F836E003F0BEFD29464846EC
:1051600001F01CF82FE003F0B7FD2946404601F09E
:1051700015F828E003F0B0FD2946384601F00EF896
:1051800021E003F0A9FD2946304601F007F81AE0B6
:1051900003F0B2FD2946002004F014FC13E003F0F4
:1051A000ABFD2946012004F00DFC0CE003F0A4FD4A
:1051B0002946022004F006FC05E003F09DFD294687
:1051C000032004F0FFFB0A2001F0ACFB4FF48071D8
:1051D0000F4802F0D2FD0A2001F0A4FB04F050FBBE
:1051E0000A2001F09FFB64214FF4A06005F0C0F994
:1051F0000A2001F097FB64214FF4806005F02AF942
:105200000A2001F08FFBBDE8F04702F029B800004A
:10521000000C0140810008480844D0F8001C4904F3
:1052200009D5D0F8001C48F68F7211404CF280026C
:105230001143C0F8001C704700500040810008482E
:105240000844D0F8001C490609D5D0F8001C48F6DF
:105250008F72114048F2C0021143C0F8001C704721
:1052600000500040810006480844D0F8001C48F671
:105270008F62114048F280021143C0F8001C704751
:10528000005000402DE9F04F85B0FE4CFE4D94F8E3
:1052900001A04AF080006870A078A870E378EB70F5
:1052A00022792A71617904916971A1790391A971B7
:1052B000E1790291E971217A01912972617A009173
:1052C0006972A17AA972E17AE972AAF1510AEF4FE3
:1052D000DFF8BC93EF4E03EB00214FF4805C4FF0FE
:1052E00000084FEA002BBAF12A0F70D2DFE80AF06B
:1052F000EFEEEDECC3D9D6EB19EAE96F6F6F6F15DE
:10530000222D38434E5964708E98A2ACB6C8CDD2C7
:10531000DCDFF0F5FAE5E4E36FE2A01CFEF794FDB4
:105320005CE2A01CFEF790FD3822D849A81CFDF7CE
:105330002DFF53E289B2614501D340F6FF717980B8
:105340004FF4002000F02AFF48E289B2614501D302
:1053500040F6FF71B9804FF4102000F01FFF3DE2CE
:1053600089B2614501D340F6FF71F9804FF42020E6
:1053700000F014FF32E289B2614501D340F6FF71BB
:1053800039814FF4302000F009FF27E289B26145EE
:1053900001D340F6FF7179814FF4402000F0FEFE0A
:1053A0001CE289B2614501D340F6FF71B9814FF427
:1053B000502000F0F3FE11E289B23985614501D336
:1053C00040F6FF714FF4602000F0E8FE06E2FCE3D7
:1053D00088B2604501D340F6FF70049901EB0221C9
:1053E00089B2614501D340F6FF71DDE9022302EB8A
:1053F000032292B2624501D340F6FF72DDE9003626
:1054000003EB06239BB203F055FAE7E189B261454D
:1054100001D340F6FF71F981002004F0D3FADDE1F9
:1054200089B2614501D340F6FF713982012004F051
:10543000C9FAD3E189B2614501D340F6FF7179829F
:10544000022004F0BFFAC9E189B2614501D340F6F8
:10545000FF71B982032004F0B5FABFE18E490878E4
:1054600038B1002008708D480088010AA970E870E2
:10547000B4E10120F6E78A48016002F059FEADE18F
:105480001946584605F074F8A8E11946584604F044
:10549000E1FFA3E1194605F00FF99FE105F0BCF823
:1054A0009CE104F0EDF999E103F03CFA96E17D49C5
:1054B000087093E1FAE3FAE3CDE3BEE312E00CE017
:1054C00006E08CE123E0BFE31AE0F1E3F1E3F1E36E
:1054D00000F03F0005F006F880E100F00F0004F056
:1054E00073FF7BE128B14FF480716F4802F045FCF7
:1054F00004E04FF480716C4802F03DFCA8786DE147
:10550000012103F0D1FA97F83300E87066E197F8CB
:10551000331001298DD100287ED0DFF8909199F8C1
:105520000000002885D104F0ABF90A2001F0FAF957
:10553000DFF86CB1CBF800805D484FF0010AC0F88D
:1055400000A05C49072008702079E17809F10C0679
:1055500000EB01203080A079617900EB01207080A0
:10556000207AE17900EB0120A9F8040003F0B4FBF4
:1055700000214FF4002000F011FE0A2001F0D2F9C2
:1055800000214FF4102000F009FE0A2001F0CAF9B2
:1055900000214FF4202000F001FE0A2001F0C2F9A2
:1055A00000214FF4302000F0F9FD0A2001F0BAF993
:1055B00000214FF4402000F0F1FD0A2001F0B2F983
:1055C00003F092FB0021084604F0FCF90A2001F0E8
:1055D000A9F90021012004F0F5F90A2001F0A2F94F
:1055E0000021022004F0EEF90A2001F09BF90021CD
:1055F000032004F0E7F90A2001F094F900214FF4A8
:10560000602000F0CBFD0A2001F08CF94FF480718E
:10561000254802F0B2FB00E066E00A2001F082F9C2
:1056200004F02EF90A2001F07DF9CBF800A03088B3
:10563000788179894FF4402000F0B0FD788848B92E
:10564000B88838B9F88828B9388918B9788908B974
:10565000B88938B1F88AC1B200F47F4004F088FFFD
:1056600001F0FEFD102004F03DFF89F800A0B9F81C
:1056700004101148016089F802A089F80180012115
:1056800000201BE0DC02002098030020D80300204B
:105690007C01002080010020020000209C010020ED
:1056A000A401002094010020000C0140AC01002066
:1056B000A00100202E0200209402002002F0FAF83F
:1056C0000021012002F0F6F80021022002F0F2F899
:1056D0000021032002F0EEF889F80180CBF800A049
:1056E000FE48C0F8008066E3FD4F387840B1D9F835
:1056F0000000002804DDD9F800003060C9F80080FF
:10570000F848C0F8008003F0DFFA03F0EDFA04F087
:10571000B7F80A2001F006F94FF48071F24802F060
:105720002AFB00214FF4002000F038FD0A2001F090
:10573000F9F800214FF4102000F030FD0A2001F0AC
:10574000F1F800214FF4202000F028FD0A2001F09C
:10575000E9F800214FF4302000F020FD0A2001F08C
:10576000E1F800214FF4402000F018FD0A2001F07C
:10577000D9F800214FF4502000F010FD0A2001F06C
:10578000D1F800214FF4602000F008FD0A2001F05C
:10579000C9F80021084604F015F90A2001F0C2F802
:1057A0000021012004F00EF90A2001F0BBF80021CD
:1057B000022004F007F90A2001F0B4F800210320C8
:1057C00004F000F90A2001F0ADF801F033FD87F88C
:1057D0000080C648C0F8008087F80280EBE200280D
:1057E0007ED0DFF8FC9299F800000028F6D104F092
:1057F00047F80A2001F096F8DFF8E8B2CBF800800D
:10580000B6484FF0010AC0F800A0B9490720087057
:10581000B84E60793080B6F90000082801DDA6F89E
:1058200000802079E17800EB0120A9F8060003F060
:105830004BFA00214FF4002000F0B0FC0A2001F0E8
:1058400071F800214FF4102000F0A8FC0A2001F0AC
:1058500069F800214FF4202000F0A0FC0A2001F09C
:1058600061F800214FF4302000F098FC0A2001F08C
:1058700059F800214FF4402000F090FC0A2001F07C
:1058800051F803F031FA0021084604F09BF80A2091
:1058900001F048F80021012004F094F80A2001F0FA
:1058A00041F80021022004F08DF80A2001F03AF8B6
:1058B0000021032004F086F80A2001F033F8A7F84D
:1058C0000280A7F80480A7F80680A7F80880A7F848
:1058D0000A80A7F80E80A7F81080A7F8128000E0D1
:1058E0003BE1A7F814803088E0B33088012844D029
:1058F000308802284BD03088032852D030880428C2
:1059000059D03088052860D03088062866D0308885
:1059100007286CD03088082873D003F0D5F903F03D
:10592000E3F90A2000F0FEFF4FF480716E4802F0A8
:1059300024FA0A2000F0F6FF03F0A2FF0A2000F08C
:10594000F1FFCBF800A0B6F90000002862DBB6F941
:10595000000004285EDCF88AC1B200F47F4004F045
:1059600007FE6EE0FFE703F0B7F9B9F8061079809B
:105970004FF4002000F012FCD3E703F0ADF9B9F8C2
:105980000610B9804FF4102000F008FCC9E703F0BE
:10599000A3F9B9F80610F9804FF4202000F0FEFBBF
:1059A000BFE703F099F9B9F8061039814FF43020B8
:1059B00000F0F4FBB5E703F08FF9B9F80610798130
:1059C0004FF4402000F0EAFBABE703F095F9B9F89B
:1059D0000610F981002003F0F5FFA2E703F08CF92F
:1059E000B9F806103982012003F0ECFF99E703F0C3
:1059F00083F9B9F806107982022003F0E3FF90E7FB
:105A0000FFE703F079F9B9F80610B982032003F033
:105A1000D9FF86E7B6F9000005280ADBB6F90000D1
:105A2000082806DC388BC1B200F47F4004F012FD78
:105A300007E00021084604F09BFD0021084604F021
:105A400009FD788888B9B88878B9F88868B938893C
:105A500058B9788948B9B88938B9F88928B9388ADD
:105A600018B9788A08B9B88A08B101F0F9FB30880A
:105A700090B33088012850D03088022851D0308827
:105A8000032852D03088042853D03088052854D0B9
:105A90003088062855D03088072856D03088082806
:105AA00057D0002004F01EFD002004F08DFC0A20D9
:105AB00000F038FFB9F804100C48016089F8028042
:105AC00089F800A00121002001F0F4FE002101204E
:105AD00001F0F0FE00210FE01BE00000A00100201B
:105AE000AC010020A4010020000C01409402002021
:105AF0002E02002090020020022001F0DBFE002197
:105B0000032001F0D7FECBF800A0B048C0F8008019
:105B100051E1012004F0E6FCC9E7022004F0E2FCB8
:105B2000C5E7042004F0DEFCC1E7082004F0DAFC3D
:105B3000BDE7102004F0D6FCB9E7012004F044FCD6
:105B4000B5E7022004F040FCB1E7042004F03CFC7F
:105B5000ADE7082004F038FCA9E79D48C0F80080B4
:105B600003F0B2F803F0C0F803F08AFE0A2000F058
:105B7000D9FE4FF48071974802F0FDF800214FF4F0
:105B8000002000F00BFB0A2000F0CCFE00214FF4B7
:105B9000102000F003FB0A2000F0C4FE00214FF4A7
:105BA000202000F0FBFA0A2000F0BCFE00214FF498
:105BB000302000F0F3FA0A2000F0B4FE00214FF488
:105BC000402000F0EBFA0A2000E0F2E000F0AAFE2C
:105BD00000214FF4502000F0E1FA0A2000F0A2FE6C
:105BE00000214FF4602000F0D9FA0A2000F09AFE5C
:105BF0000021084603F0E6FE0A2000F093FE002193
:105C0000012003F0DFFE0A2000F08CFE00210220BC
:105C100003F0D8FE0A2000F085FE0021032003F0E7
:105C2000D1FE0A2000F07EFE01F004FB6A4880F8F5
:105C300000806A48C0F80080BDE010B103F04CF865
:105C4000B9E003F041F8B6E010B103F055F8B2E066
:105C500003F04AF8AFE0C00704D00121002001F0B2
:105C600029FE03E00021084601F024FEA078800709
:105C700004D50121084601F01DFE03E000210120AA
:105C800001F018FEA078400704D50121022001F0A0
:105C900011FE03E00021022001F00CFEA0780007B5
:105CA00009D50121032001F005FE84E05CE007E056
:105CB0001EE053E028E00021032001F0FBFD7AE024
:105CC0003822A11C4648FDF761FA786A306001F07D
:105CD00077F9788D434931F810004349088005F081
:105CE00043FD38223E49414807F014FE02F02AFDE8
:105CF0001822A11C3E48FDF749FA20223C493D48A4
:105D000007F008FE02F01EFD3B4954F8020F086040
:105D100060684860A068A41E8860B1F90000344A39
:105D2000364B30B1012808D002280AD003280CD005
:105D300041E04888108398840AE088885083D8849A
:105D400006E0C8889083188502E00889D0835885CA
:105D500020222749274807F0DDFD2CE002EB032134
:105D600089B2FFF789F926E058B12548007898B143
:105D70003068C9F8000023490720087005F080FD4D
:105D80000AE0D9F80000002806DDD9F800003060EC
:105D9000C9F8008005F0E8FC3068000AE870306857
:105DA0002871D9F80000000A6871D9F80000A871BC
:105DB00001E0FF2068706078592801D1F8206870F0
:105DC00005B0BDE8F04F06F0B5B90000A001002015
:105DD000A4010020000C0140AC010020940200202E
:105DE000D8030020D60100200602002000F8070892
:105DF0001004002000F007083A040020D808002012
:105E0000040200202E02002070B5FDF71DFFFDF7F3
:105E10000BFFFDF7C1FE2F4D284600F0B7FA2F49C2
:105E20002D48086001F12C00486000248C6040205F
:105E3000C8600C6180204861400088618000C861B2
:105E400020200862000248628C62284600F036FB7F
:105E500001220221284600F027FB0121284600F0FC
:105E600087FA1E48143804600121017144714FF40F
:105E700060228260C4600174174C01464C3C20468D
:105E8000FDF7AEFE032301220D212046FDF7ECFEB7
:105E900001212046FDF76CFE01212046FDF770FE32
:105EA00001212046FDF758FE01212046FDF748FE5E
:105EB0002046FDF713FF2046FDF78AFE0028FAD1A1
:105EC0002046FDF71CFF2046FDF774FE0028FAD19E
:105ED00070BD0000080002404C240140FC07002077
:105EE00010B519490A689188002901D0022010BD17
:105EF0000021062804D1137803F07F03012B05D07D
:105F0000137803F07F03212B0AD014E09078222825
:105F100002D0212802D00EE00C490CE00C490AE026
:105F2000032802D0092806D101E00A4903E00A4902
:105F30000A4B0920187029B19161002050828847CE
:105F4000002010BD022010BD4C010020A15F000800
:105F5000795F0008855F0008FD6000088000002070
:105F6000014904F0CFBC000090000020014904F07A
:105F7000C9BC000088000020014904F0C3BC000037
:105F8000A0000020002801D00348704703490120E9
:105F90000968088200207047840000204C0100201E
:105FA000014904F0AFBC00009800002005490968D1
:105FB000C978042901D900207047034A02EBC101C6
:105FC00004F0A0BC4C010020D8000020002901D022
:105FD0000220704708B1022070470020704700007F
:105FE00006490968097801F07F01212901D10B28B0
:105FF00001D00220704700F075B800004C0100206D
:1060000010B52A480021006881722949C979417276
:10601000002004F09DF84FF40071002004F06CF9AA
:106020001021002004F03CF91821002004F0BCF8F5
:10603000204C0020217804F0C7F85821002004F0FB
:1060400011F92178002004F01DF90020FFF70AF96A
:10605000002004F0F3F84FF4C0642146012004F05E
:106060004BF94FF48071012004F0FCF8402101202D
:1060700004F008F92021012004F012F92146022041
:1060800004F03AF94FF4A871022004F08DF8402191
:10609000022004F099F8E100022004F0B7F8002093
:1060A00004F05EF804490120086010BD4C01002096
:1060B000F2EF0008D400002020010020044800680E
:1060C000807A002802D0034905200860704700004C
:1060D0004C01002020010020014904200860704785
:1060E0002001002003480068C07803494860002070
:1060F000704700004C01002080000020002801D0E3
:10610000034870470349022009680882002070474D
:106110001C0300204C0100207047704710B501F0AF
:1061200077FE064800240068847202F0B7FD05F08F
:1061300091FF05F0BFFE0248046010BD4C01002035
:106140002001002008B517208DF8000000208DF8F0
:106150000100684602F0B0FA08BD00004FF48071FB
:10616000014801F008BE0000001001404FF48071AA
:10617000014801F002BE00000010014010B50022ED
:106180000221104600F050F8BDE810404FF4807135
:10619000014801F0F2BD0000001001402DE9F0417E
:1061A00005464FF6FF7000EA011400220221104656
:1061B00000F03AF8084F4FF400463146384601F0F7
:1061C000DAFD45EA040000F077F831463846BDE8CC
:1061D000F04101F0D2BD00000018014010B507F0F9
:1061E0006BFF4FF400410D4801F0C7FD80210C48C2
:1061F00001F0C3FD10210B4801F0BFFDFFF7AEFF1A
:106200000A2000F08FFBFFF7B1FFFFF7B7FF0A206E
:1062100000F088FBBDE8104002F056BD00180140B8
:1062200000100140000C0140F0B585B004460D4659
:106230001646134F0021384603F0E8FB0020ADF866
:1062400000004FF48273ADF80230ADF80440ADF8B1
:106250000650ADF808607915ADF80A101821ADF8B0
:106260000C10ADF80E000720ADF810006946384656
:1062700003F0E3FB0121384603F0C8FB05B0F0BD95
:106280000038004070B505460A4C0221204603F054
:10629000C9FB0028F9D02946204603F0CCFB012198
:1062A000204603F0BFFB0028F9D02046BDE870402F
:1062B00003F0BFBB0038004070B504461D4E0221FC
:1062C000304603F0AFFB0028F9D0C4F30741304655
:1062D00003F0B1FB0121304603F0A4FB0028F9D004
:1062E000304603F0A6FBC0B24FF6FF7101EA00256D
:1062F000C4F30721304603F09EFB0121304603F032
:1063000091FB0028F9D0304603F093FBC0B228433C
:106310000004050AE1B2304603F08DFB012130464E
:1063200003F080FB0028F9D0304603F082FBC0B2B6
:10633000284370BD0038004010B5022000F0A2F8DC
:10634000002806D0034901200860BDE8104000F095
:1063500003B810BDA0010020C10002D502490860A9
:106360007047024948607047040402400000024040
:10637000002904D0016841F0010101607047016803
:106380004FF6FE72114001607047000001684FF641
:10639000FE72114001600021016041608160C160B6
:1063A0003649364A0839904204D1486840F00F0017
:1063B00048607047314A1432904204D1486840F036
:1063C000F000486070472D4A2832904204D1486856
:1063D00040F4706048607047284A3C32904204D1D3
:1063E000486840F4704048607047244A50329042F8
:1063F00004D1486840F47020486070471F4A6432F6
:10640000904204D1486840F47000486070471B4ACD
:106410007832904204D1486840F07060486070471C
:10642000174A111F904204D1086840F00F0008601D
:106430007047134A1432904204D1086840F0F000CB
:10644000086070470E4A2832904204D1086840F430
:106450007060086070470A4A3C32904204D1086874
:1064600040F4704008607047054A50329042FAD1BB
:10647000086840F47020086070470000080002407F
:106480000804024002460020D10002D504490968F0
:1064900001E004490968114200D001207047000062
:1064A0000004024000000240002A03D002680A43B0
:1064B0000260704702688A430260704730B5026824
:1064C00047F6F0739A430C6A8B682343D1E904457D
:1064D0002C4323438C692343CC6923434C6A2343D5
:1064E0008C6A234313430360CA6842600A6882606F
:1064F0004968C16030BD00002DE9F047DFF89880A1
:10650000D8F8001001F1100528880E7A234F4FF0BB
:106510003009002801D1042E04D0AC88A04215D83F
:10652000042614E01E480178012903D00726102014
:1065300038802BE01B4A002112681B4B92B2921C40
:1065400043F81210A7F8009001701FE00226844261
:1065500000D90446A968A0B288478246002001F00D
:1065600049FC0146A2B2504605F000FEA1B200204F
:1065700003F088FE2888001B2880688820446880F3
:10658000A7F8009009494FF440500880D8F800005F
:106590000672BDE8F08700004C0100205C0100207D
:1065A00044010020505C0040006000405A0100207F
:1065B0002DE9F041214E346810342088A16800296B
:1065C00015D0A0B1A588854200D90546A8B2884754
:1065D00007462088401B2080608828446080002077
:1065E00001F0E8FB0146AAB2384602F051F92088D2
:1065F000134F302538B1134928020880002108467E
:1066000003F040FE3D802088A188884204D3316891
:1066100003200872BDE8F08118B1316805200872C6
:10662000F8E7316806200872074800210068074A29
:1066300080B2801C42F810103D80EBE74C01002036
:106640005C0100205A010020505C004000600040C6
:106650002DE9F843634E306842780024624D062AE3
:10666000296801D08AB117E00278520669D1807892
:10667000012804D0022804D0032804D061E0CC69AA
:106680005FE00C6A5DE04C6A5BE0438823B9C38835
:10669000022B01D1037923B1082A39D00A2A3CD030
:1066A0004FE00278530601D1838833B102F07F02B4
:1066B000012A04D0022A0CD043E04C4C41E08A6904
:1066C00040790021904710BB3068807AF8B1474C80
:1066D00037E0417901F00F0001F070020B064449E8
:1066E00007D501EB8001D1F8001CC1F301110901AC
:1066F00006E001EB8001D1F8001CC1F30131090370
:106700003C4B1B7883421CD90AB901B1374C18E0C5
:106710000078400615D1384C13E0027802F07F0271
:10672000012A0ED1827A62B1428852B9027942B905
:10673000C288012A05D18A6940790021904700B9B1
:106740002E4C09274FF000083CB13068A0F81280A9
:1067500084610020A047002006E0296830680969AC
:1067600040788847032816D031680A8AA2F57F430B
:10677000FF3B0DD0022811D082B1087800062AD53F
:10678000C8880090009882420CD9009808821AE0CC
:106790000F72BDE8F88330680772FAE74FF008001F
:1067A0000872F6E70FD22868154B90F82C00824249
:1067B00002D283F8008006E0B2FBF0F400FB142064
:1067C00008B901201870286890F82C008882BDE86C
:1067D000F843FFF791BE032008720A4900030880BE
:1067E000D7E700004C010020500100204DA900080F
:1067F00000500040F8000020DDA8000825A900088E
:10680000440100205A01002070B53F4E4FF48075BE
:106810002946304601F0B1FA03F032F80A2000F0C0
:1068200081F83A4A00241460394B01221A60002092
:1068300003F058FE0A2000F075F83648048002F094
:1068400043FA02F051FA0A2000F06CF8294630466B
:1068500001F091FA0021E802FFF7A0FC0A2000F005
:1068600061F800214FF41020FFF798FC0A2000F097
:1068700059F800214FF42020FFF790FC0A2000F087
:1068800051F800214FF43020FFF788FC0A2000F077
:1068900049F800214FF44020FFF780FC0A2000F067
:1068A00041F800214FF45020FFF778FC0A2000F057
:1068B00039F800214FF46020FFF770FC0A2000F047
:1068C00031F80021084603F07DF80A2000F02AF88C
:1068D0000021012003F076F80A2000F023F80021BF
:1068E000022003F06FF80A2000F01CF800210320BA
:1068F00003F068F80A2000F015F807494FF47A70A1
:1069000008600648047070BD000C0140A40100201E
:10691000A00100208E02002094020020AC01002083
:106920007047000031B5084C41F29415E56006E06F
:1069300001F072FBE068411EE160FBD2E560009867
:10694000411E0091F4D238BD0000002010B50A4C61
:106950004FF48061204601F010FAE114204601F066
:106960000CFAA114204601F008FA61142046BDE893
:10697000104001F002BA00000018014038B504468A
:106980000846FCF781FE0F49FCF771FC0E49FCF745
:10699000A0FCFCF7E8FE02460B460CA10E4805F0F1
:1069A00043FC0E4A602150680090C4F1060000EBE1
:1069B000400001EB800081B21368074A9F2007F076
:1069C000E7FE38BD0000F04100F07F452025322E63
:1069D0003266562000000000CC0200202402002075
:1069E00008B5054805A24168009103682C210520DF
:1069F00007F0CEFE08BD00001402002020204869E8
:106A00002054656D7020000008B5054805A2416856
:106A1000009103688C21052007F0BAFE08BD000034
:106A200014020020202020202020202020202020B0
:106A30002020000038B5FCF796FE02460B460BA15D
:106A40000E4805F0F1FB0E4C0EA28C216068009000
:106A50000520236807F09CFE60680090074A8C219F
:106A60000520236807F094FE38BD0000506F77655D
:106A7000723A25342E32666D57000000CC02002099
:106A80001402002020202020202020202020202050
:106A9000202000002DE9FC5F044692460D46084682
:106AA000FCF761FE15F1FF4F07D2CDE90001224648
:106AB000FAA1FE4805F0B8FB06E0CDE90001224648
:106AC000FBA1FA4805F0B0FBFD4DF84A686800905C
:106AD000C4F1060000EB4001602000EB810081B2B0
:106AE000284603680F2007F053FEDFF8D8B39C2632
:106AF0009027F5484FF084084FF07809012C08D012
:106B0000022C34D0032C60D0042C73D0052C72D00E
:106B1000E6E0B0F90000002810DBFCF7ACFD5946B8
:106B2000FCF7A5FBE949FCF7D4FBFCF71CFE024689
:106B30000B46E7A1DD4805F077FB0FE0FCF79BFD76
:106B40005946FCF794FBE149FCF7C3FBFCF70BFE4D
:106B500002460B46E1A1D54805F066FB6868009047
:106B60003146D24A57202B6807F012FEB8E0B0F940
:106B70000200002810DBFCF77EFD5946FCF777FB8E
:106B8000D249FCF7A6FBFCF7EEFD02460B46D0A16E
:106B9000C64805F049FB0FE0FCF76DFD5946FCF7D0
:106BA00066FBCA49FCF795FBFCF7DDFD02460B4688
:106BB000CAA1BE4805F038FB686800903946BB4A58
:106BC00057202B6807F0E4FD8AE0B0F904000028A4
:106BD00012DBFCF750FD5946FCF749FBBB49FCF7BB
:106BE00078FBFCF7C0FD02460B46B9A1AF4805F0A3
:106BF0001BFB11E019E046E0FCF73DFD5946FCF7B0
:106C000036FBB249FCF765FBFCF7ADFD02460B46CF
:106C1000B2A1A64805F008FB686800904146A34A67
:106C200057202B6807F0B4FD5AE0B0F906000028A1
:106C300010DBFCF720FD5946FCF719FBA349FCF7D4
:106C400048FBFCF790FD02460B46A1A1974805F0D2
:106C5000EBFA0FE0FCF70FFD5946FCF708FB9B49E8
:106C6000FCF737FBFCF77FFD02460B469BA18F48E4
:106C700005F0DAFA6868009049468C4A57202B687C
:106C800007F086FD2CE0B0F90800002810DBFCF7C7
:106C9000F2FC5946FCF7EBFA8C49FCF71AFBFCF7BF
:106CA00062FD02460B468AA1804805F0BDFA0FE05E
:106CB000FCF7E1FC5946FCF7DAFA8449FCF709FBDA
:106CC000FCF751FD02460B4684A1784805F0ACFA6A
:106CD000686800906C21754A57202B6807F058FDB2
:106CE000BAF1000F4ED0DFF800A28048012C1CD072
:106CF000022C49D0032C78D0042C74D0052C41D11F
:106D0000B0F9000000286FDBFCF7B5FC5146FCF73A
:106D1000AEFA6E49FCF7DDFAFCF725FD02460B469C
:106D200073A1624805F080FA01E1B0F9060000287D
:106D300010DBFCF7A0FC5146FCF799FA6349FCF71D
:106D4000C8FAFCF710FD02460B4669A1574805F04A
:106D50006BFA0FE0FCF78FFC5146FCF788FA5B49B1
:106D6000FCF7B7FAFCF7FFFC02460B4663A14F485D
:106D700005F05AFA6868009031464C4A9F202B680B
:106D800007F006FDBDE8FC9FB0F90400002810DB09
:106D9000FCF771FC5146FCF76AFA4C49FCF799FA8A
:106DA000FCF7E1FC02460B4651A1404805F03CFAD5
:106DB0000FE0FCF760FC5146FCF759FA4349FCF739
:106DC00088FAFCF7D0FC02460B464CA1374805F088
:106DD0002BFA686800903946344A9F202B6807F0E8
:106DE000D7FCCFE701E02EE090E0B0F906000028E4
:106DF00010DBFCF740FC5146FCF739FA3349FCF74D
:106E000068FAFCF7B0FC02460B4639A1274805F0AA
:106E10000BFA0FE0FCF72FFC5146FCF728FA2B4940
:106E2000FCF757FAFCF79FFC02460B4633A11F48BC
:106E300005F0FAF96868009041461C4A9F202B68CB
:106E400007F0A6FC9EE7B0F90200002810DBFCF773
:106E500012FC5146FCF70BFA1C49FCF73AFAFCF716
:106E600082FC02460B4622A1104805F0DDF90FE036
:106E7000FCF701FC5146FCF7FAF91449FCF729FA32
:106E8000FCF771FC02460B461CA1084805F0CCF942
:106E9000686800904946054A9F2033E025643A20FF
:106EA00025322E336656202020000000CC02002020
:106EB00025643A25322E336656202020000000003B
:106EC000240200200000F0413004002000F07F4543
:106ED000202025322E336656200000002025322E39
:106EE000336656200000000000004040CC01002026
:106EF000202025322E336656000000002025322E39
:106F0000336656002B6807F043FC3BE7FCF7B3FB06
:106F10005146FCF7ACF90A49FCF7DBF9FCF723FC16
:106F200002460B46AFF22C01064805F07DF9686871
:106F300000906C21034A9F202B6807F029FC21E771
:106F400000F07F45CC0200207CB54FF4616190FBDE
:106F5000F1F290FBF1F301FB13033C2493FBF4F3F8
:106F600090FBF1F501FB150090FBF4F104FB11001F
:106F700000900BA10F4805F057F90F4C258840F2FF
:106F8000F56020800D48D0E90112CDE900120368B8
:106F9000084AB6210A2007F019FC25807CBD0000B4
:106FA00025302E31643A25302E32643A25302E3287
:106FB00064000000CC020020080200206C020020C7
:106FC0007CB51D491D4C91F8331000290AD0D4E935
:106FD0000101CDE900011AA2B6210A20236807F0B9
:106FE000F5FB7CBD4FF4616190FBF1F290FBF1F396
:106FF00001FB13033C2593FBF5F390FBF1F601FB3A
:10700000160090FBF5F105FB110000900EA113484E
:1070100005F00AF9124D2E8840F2F5602880D4E977
:107020000101CDE900010D4AB6210A20236807F0CD
:10703000CDFB2E807CBD0000D80300206C02002018
:10704000303A30303A30300025302E31643A253035
:107050002E32643A25302E3264000000CC0200202B
:10706000080200207CB50446204EB5881F20B08061
:10707000632C00D96324ECB122461DA11D4805F004
:10708000D3F81D480A2C0AD2D0E90112CDE900122A
:107090000368184A1321C22007F098FB23E0D0E9C7
:1070A0000112CDE900120368124A1321AA2007F049
:1070B0008DFB18E0114C12A2402160680090AA20BC
:1070C000236807F065FB606800900DA22821AA20C4
:1070D000236807F05DFB6068009009A21321AA20D5
:1070E000236807F055FBB5807CBD0000040200203A
:1070F00025640000CC0200206C0200201402002055
:10710000202020200000000008B50C480CA2416897
:10711000009103685C21052007F03AFB0C4901202F
:1071200008700C49087800F0E9FA09780A4811B1AA
:107130000221018008BD0621018008BD1402002043
:107140002020202041726D65642020202020000036
:10715000040200200B040020D40100202DE9F04798
:1071600006460F469046002411E060083B1806EBE7
:107170004405994628462A46394606F06DF94B469D
:107180006A1C681C394606F067F9641CE4B2444581
:10719000EBD3BDE8F087000038B500F5004040F6BD
:1071A000880190FBF1F084B20E4D0FA24FF49A715A
:1071B00068680090B3202B6807F0EAFA68680090CE
:1071C0002B6840F2311508A22946B32007F0E0FAF7
:1071D0001E2C00D91E2422462946BDE83840B32083
:1071E000FFF7BCBF1C020020202020202000000050
:1071F00008B5094809A24168009103685C2105208F
:1072000007F0C6FA094900200870094890F83300D1
:10721000BDE8084000F072BA1402002020202020AF
:107220002049444C4520202020200000040200205A
:10723000D803002008B5054805A2416800910368FD
:107240004421052007F0A4FA08BD00001402002024
:107250004C41534552533A4F4646202020200000CF
:1072600008B5054805A2416800910368442105203E
:1072700007F08EFA08BD0000140200204C4153456F
:1072800052533A4F4E2020202020000008B50948D4
:1072900009A24168009103685C21052007F078FA93
:1072A000094901200870094890F83300BDE80840FA
:1072B00000F024BA1402002020204D4541535552BD
:1072C000494E47202020000004020020D80300205F
:1072D00008B5094809A24168009103685C210520AE
:1072E00007F056FA094901200870094890F8330060
:1072F000BDE8084000F002BA14020020202020500F
:107300004155534544202020202000000402002045
:10731000D803002008B5174A0028D2E900310CD064
:10732000012811D0022816D003281BD0009112A2E8
:1073300014211C2007F02CFA08BD009111A2142181
:107340001C2007F025FA08BD009111A214211C2071
:1073500007F01EFA08BD009110A214211C2007F0AE
:1073600017FA08BD009110A214211C2007F010FA92
:1073700008BD000014020020202020202020202012
:107380002020200020202057414954202020200088
:1073900020202053544152542020200020202050EF
:1073A000415553452020200043616C69205265619E
:1073B0006479200008B5064806A241680091036878
:1073C0005C21052007F0E4F906490020087008BD9B
:1073D0001402002053656C662D43616C692E2E2EBD
:1073E0002E2E00000402002008B5064806A24168BF
:1073F000009103685C21052007F0CAF906490020C6
:10740000087008BD1402002053656C662D54657326
:1074100074204D6F646500000402002008B50A481E
:107420000A49028DD1E90030002A06D0009008A256
:107430002C21052007F0ACF908BD009007A22C21F3
:10744000052007F0A5F908BDD8030020140200208C
:1074500054454E533A20204F46460000202020201D
:10746000202020202020000008B50A480A49028D6B
:10747000D1E90030002A06D0009008A22C21052076
:1074800007F086F908BD009007A22C21052007F01F
:107490007FF908BDD80300201402002054454E5344
:1074A0003A20204F4E2000002020202020202020A5
:1074B00020200000F8B504462046FCF7E5F8214EF0
:1074C000002C35D02049FBF7D2FE2049FBF701FF05
:1074D00005462846FCF714F984B22046FCF7D4F898
:1074E0002946FBF7C1FEB0F17C5F01DD641CA4B24C
:1074F000642C05D3224616A1194804F095FE0EE02F
:10750000A4F10A005A2805D2224616A1144804F014
:107510008BFE04E0224617A1114804F085FE706836
:1075200000900F4A74210520336807F031F9F8BD47
:107530007068009013A274210520336807F028F9C1
:10754000F8BD0000140200200000C84200F07F4592
:1075500054656E73203A2564252520202000000004
:10756000CC02002054656E73203A20256425252026
:107570002020000054656E73203A202025642525C4
:10758000202020002020202020202020202020201B
:107590002020000008B5094809A24168009103684D
:1075A0005C21052007F0F4F809490120087009481A
:1075B00090F83300BDE8084000F0A0B814020020A5
:1075C0002020205452454154494E4720202000009D
:1075D00004020020D80300200FB42DE9F84F044620
:1075E0000D469046BDF83A60102E02D94FF01009B2
:1075F00001E0BDF93A902B2006F042FE280A06F081
:1076000065FEE8B206F062FE6D1E701985B2280AAA
:1076100006F05CFEE8B206F059FE2A2006F030FEC5
:10762000200A06F053FEE0B206F050FEBDF83850D6
:10763000641E281984B2200A06F048FEE0B206F063
:1076400045FE2C2006F01CFE00274FEA1820DFF82C
:10765000A8A0009049E000F0DFFC43F6FF760C2D77
:1076600005D0082D03D04FF0010B002439E00C2D7C
:1076700003D04FF0800B002419E04FF4004BFAE7E1
:107680002BFA04F0304207D0009806F01FFE08F0F5
:10769000FF0006F01BFE08E0BAF80200000A06F040
:1076A00015FE9AF8020006F011FE641C24B2A542F1
:1076B000E6DC18E00BFA04F0304207D0009806F040
:1076C00005FE08F0FF0006F001FE08E0BAF802002F
:1076D000000A06F0FBFD9AF8020006F0F7FD641CB4
:1076E00024B2A542E6DC7F1CBFB24F45B3DBBDE848
:1076F000F80F5DF814FB0000040200207047000042
:107700001CB50122034BCDE900323C23F02205F0E9
:10771000BBFD1CBD007807081CB501200549CDE95B
:10772000001000214FF4A073F022084605F0ACFDD4
:107730001CBD0000002005080149012008707047A9
:107740000000002010B50749022004F093FC054812
:10775000054940780870BDE810404FF440510220C0
:1077600002F054BDDC0200200100002010B54FF4EF
:107770000064204600F054F860B1FCF7C5FA30B15F
:107780000B48006818B901210A48FCF7ACFA2046FA
:1077900000F02EF84FF4805000F042F8002805D099
:1077A000BDE810404FF4005000F022B810BD0000BA
:1077B000A00100200024014010B5042000F030F8A2
:1077C000002806D002F056F9BDE81040042000F071
:1077D0000FB810BD704710B5202000F021F8002828
:1077E00004D0BDE81040202000F002B810BD000019
:1077F0000149086070470000140401401CB54FF4B3
:1078000080242046FFF7F4FF009408208DF805003F
:1078100001208DF80600684600F012F81CBD00003B
:1078200001460020054A12680A40044B14331B68C5
:107830000B4202D0002A00D0012070470004014012
:1078400030B51B4A83790168002B2AD013688B431B
:107850001360111D0B680468A3430B600179114488
:107860000B68046823430B60114C083421680368DB
:1078700099432160231D19680568A943196041795E
:10788000102905D011440A68006802430A6030BD1F
:10789000216802681143216019680068014319607A
:1078A00030BD0079104402688A43026030BD000098
:1078B0000004014002461648002A0AD0012A11D0CD
:1078C000022A18D0032A22D14214E9B1114600F04D
:1078D00052BA4FF4806211B1114600F04CBA114611
:1078E00000F04BBA4FF4006211B1114600F043BAF8
:1078F000114600F042BA4FF4805211B1114600F027
:107900003ABA114600F039BA114600F036BA70475B
:1079100000180140704700000149C860704700002E
:107920000020024070B505464FF43026304600F086
:107930006DF8042811D1094C206940F00200206143
:107940006561206940F040002061304600F05EF83B
:10795000216941F6FD721140216170BD0020024095
:1079600004200849CA68D20701D001207047CA68BC
:10797000520701D502207047C968C906FBD503200C
:1079800070470000002002400248016941F0800178
:1079900001617047002002402DE9F84105460E467E
:1079A000002000904FF40057384600F02FF80428CC
:1079B0000FD10F4C206940F0010020612E80B846A5
:1079C000404600F023F8BF1E042804D02169394046
:1079D0002161BDE8F881AD1C00950099300C08804C
:1079E000404600F013F8216939402161F1E70000B9
:1079F000002002400348024941600349416070474A
:107A00002301674500200240AB89EFCD00B5034656
:107A1000FFF7A6FF02E0FFF7A3FF5B1E012801D1DD
:107A2000002BF8D1002B00D1052000BD2DE9FF5F10
:107A30000121192001F0BCF90121402001F0B8F921
:107A40000121202001F0B4F90126ADF80C604FF0BF
:107A5000030B8DF80EB010248DF80F40DFF8A0A1B5
:107A600003A9504600F0FEF84FF00209ADF80C9063
:107A700003A9504600F0F6F80425ADF80C5003A910
:107A8000504600F0EFF82701ADF80C708DF80EB0FD
:107A90008DF80F4003A95B4800F0E4F84FF48058DC
:107AA000ADF80C8003A9504600F0DCF84FF6FF70EB
:107AB000ADF80C008DF80EB08DF80F40DFF848B12E
:107AC00003A9584600F0CEF8ADF80C9003A958462B
:107AD00000F0C8F8ADF80C5003A9584600F0C2F801
:107AE0004FF00809ADF80C9003A9584600F0BAF819
:107AF000ADF80C4003A9584600F0B4F82020ADF8CA
:107B00000C0003A9584600F0ADF84020ADF80C0079
:107B100003A9584600F0A6F88020ADF80C0003A990
:107B2000584600F09FF8ADF80C7003A9584600F0D5
:107B300099F86001ADF80C0003A9584600F092F8DE
:107B4000A001ADF80C0003A9584600F08BF8E40141
:107B5000ADF80C4003A9584600F084F8ADF80C804D
:107B600003A9584600F07EF8A000ADF80C0003A968
:107B7000584600F077F8E000ADF80C0003A958462D
:107B800000F070F82001ADF80C0003A9584600F091
:107B900069F87F20ADF80C008DF80F5003A91B4841
:107BA00000F060F8ADF80C408DF80F5003A9504676
:107BB00000F058F80B21022000F040F8019400205A
:107BC0008DF808008DF809908DF80A6001A8FFF77C
:107BD00037FE2046FFF70CFE28208DF800000F200E
:107BE0008DF801008DF802008DF80360684600F002
:107BF00063FD3946034800F0C0F8BDE8FF9F000070
:107C000000100140000C0140001401400018014028
:107C100008B50121082001F0CBF80220ADF80000E2
:107C200003208DF8020014208DF8030069460248F5
:107C300000F018F808BD0000000C014010B58A07DC
:107C4000120F0F23934021F00304054921448C684F
:107C50009C438C608B68904003438B6010BD000098
:107C6000000001402DE9F0410022CC7804F00F0320
:107C7000E40601D58C7823430C784FF00F0714F0FD
:107C8000FF0F4FF0010C1CD005680CFA02F40E88AF
:107C90002640A64211D1960007FA06F825EA080503
:107CA00003FA06F848EA0505CE78282E02D0482EB9
:107CB00002D002E0446100E00461521C082AE4D3CF
:107CC00005600A88FF2A1ED94568002202F10806CD
:107CD0000CFA06F40E882640A64210D1960007FA48
:107CE00006F825EA080503FA06F848EA0505CE78FD
:107CF000282E00D14461CE78482E00D10461521C58
:107D0000082AE3D34560BDE8F0810000F0B5154CCA
:107D1000002801DAE36900E06368C0F30346420D1E
:107D2000120185B2C0F301579540032F07D0C2025C
:107D30000CD50322B240934343F0706209E023F074
:107D40007062636823F07063636002E0AB4343F0EA
:107D5000706201B12A43002801DAE261F0BD62607D
:107D6000F0BD0000000001400246002092680A4277
:107D700000D0012070474161704701617047C160C8
:107D80007047002001F05ABB10B501F073FE70B1CE
:107D90002D20FEF7C7FD01F06DFE10B907E000F0E1
:107DA0003BF901F067FE0028F9D1012010BD002049
:107DB00010BD00000549096889B201EBC000044903
:107DC000001D31F8100080B270470000505C004088
:107DD000006000400549096889B201EBC000044910
:107DE000801D31F81000C0F309007047505C00405E
:107DF000006000400449096889B201EBC0000349F2
:107E000031F8100080B27047505C004000600040C4
:107E100010B50B480168001D0468001D0068084487
:107E200000280BD00822074900F05CF905492046DC
:107E30000422BDE81040103100F054B910BD00001C
:107E4000E8F7FF1F22000020FEE7002904D0018888
:107E500041F4806101807047018821F480610180D4
:107E60007047034600209A8A1B8B1B041A4322F09A
:107E70007F42914300D101207047002904D001883E
:107E800041F0010101807047018821F0010101806A
:107E90007047000010B50C4988420AD101214C05F9
:107EA000204600F077FF2046BDE81040002100F09A
:107EB00071BF01218C05204600F06CFF2046BDE813
:107EC0001040002100F066BF00540040002904D09B
:107ED000018841F4807101807047018821F480712C
:107EE00001807047002904D0018841F400710180AD
:107EF0007047018821F40071018070470CB502467B
:107F0000002000920A0F019221F07F41019A002A7D
:107F100003D0009A1432009203E0090C009A183240
:107F20000092009A12680A4200D001200CBD0000A5
:107F300070B586B004460D46A08820F03F0601A823
:107F400000F052FF03982849B0FBF1F189B20E43CB
:107F5000A680228822F001022280244B2A689A42BD
:107F600009D85200B0FBF2F080B2042800D20420FD
:107F7000491C218423E0EB88A3F53F46FF3E0BD04C
:107F800002EBC20303EB0212B0FBF2F080B240F44A
:107F90008040020506D007E002EB4202B0FBF2F09F
:107FA00080B2F6E740F0010040F400404FF49672D2
:107FB00051434FF47A72B1FBF2F1491C2184A08342
:107FC000208840F00100208020884FF6F5310840DD
:107FD000A9886A89114301432180A8892989084316
:107FE000208106B070BD000040420F00A086010055
:107FF000002A02D041F0010101E001F0FE010182FE
:10800000704701827047000002494CF6CC4008607E
:10801000704700000030004002494AF6AA2008607C
:108020007047000000300040014948607047000080
:108030000030004001498860704700000030004077
:1080400001490860704700000030004010B5144C32
:108050002068017A02290AD0042908D006290BD009
:10806000082021680872BDE8104000F089BDFEF7C5
:1080700043FA2068007AF4E74178052909D10178AC
:10808000490606D1C07802F06BF806480068006A1D
:10809000804705480068806880470820E1E70000C5
:1080A0004C010020540100205001002070B50C4C00
:1080B00000252571EF20A06040F23F10E06006F03F
:1080C0006DF9FF221146104606F0D8FB002211463A
:1080D000104606F0ABFB04F114000560657170BD3D
:1080E000A4020020F0B500230A25302637270024FB
:1080F00012E0B5EB107F04D906EB107C01F813C039
:1081000003E007EB107C01F813C0000101EB430C06
:108110008CF801405B1CDBB29342EAD3F0BD10B592
:108120000C4606F0D3F82046BDE8104006F0CEB865
:1081300002494FF480700860704700001408014045
:1081400002494FF480700860704700001008014039
:108150000248016881F48071016070470C08014099
:1081600038B50121042000F023FE0121402000F059
:108170001FFE0121082000F01BFE4FF48070ADF8B7
:10818000000003258DF8025010248DF80340694645
:108190000C48FFF767FD2802ADF800008DF802508B
:1081A0008DF8034069460848FFF75CFD0120ADF8F3
:1081B000000004208DF8030069460448FFF752FDD3
:1081C00038BD00000008014000180140000C0140CB
:1081D0000548817A0548002902D00521016001E0A7
:1081E0000121016000F0EEB97C0300202001002095
:1081F0002DE9F05F6F484FF0010AA0F800A000F0F1
:108200006BFDDFF8B481B8F90200DFF8B091B9F97D
:1082100002100C18002C00DA00244FF4805B40F6AA
:10822000FF775C4500DB3C46A1B24FF40020FDF730
:10823000B5FF0A20FEF776FBB8F90400B9F904107F
:108240000844002800DA0020584500DB384681B297
:108250004FF41020FDF7A2FF0A20FEF763FBB8F9E8
:108260000600B9F906100D18002D00DA00255D454D
:1082700000DB3D46A9B24FF42020FDF78FFF0A2016
:10828000FEF750FBB8F90800B9F908100E18002ED7
:1082900000DA00265E4500DB3E46B1B24FF43020E6
:1082A000FDF77CFF0A20FEF73DFBB8F90A00B9F99B
:1082B0000A100844002800DA0020584500DB384640
:1082C00081B24FF44020FDF769FF0A20FEF72AFB38
:1082D00000F00AFD0021084601F074FB0A20FEF7B9
:1082E00021FB0021012001F06DFB0A20FEF71AFBA3
:1082F0000021022001F066FB0A20FEF713FB00219B
:10830000032001F05FFB0A20FEF70CFB00214FF475
:108310006020FDF743FF4FF480712948FFF72DFDE2
:108320000A20FEF7FFFA01F0ABFA2648C0F800A0D9
:10833000B8F8020070B9B8F8040058B9B8F80600E7
:1083400040B9B8F8080028B9B8F80A0010B9B8F868
:108350000C0068B10A20FEF7E5FAB8F81600C1B2C1
:1083600000F47F4002F004F9FEF77AFFFEF78EFF7B
:10837000102002F0B7F8144880F800A01349002438
:108380000C70847012494FF47A700860012100204B
:10839000FFF790FA00210120FFF78CFA002102205C
:1083A000FFF788FA00210320FFF784FA09480460E8
:1083B000BDE8F09FD4010020D80300201004002065
:1083C000000C0140A4010020AC0100208C02002020
:1083D00094020020A0010020FEE700002DE9F041FA
:1083E00005466420FEF79EFA384E394F7088388073
:1083F000B188814200D93980F0883988884200D913
:10840000388030893988884200D938807089398825
:10841000884200D93880B0893988884200D93880AC
:10842000F489308AA04200D90446708AA04200D95B
:108430000446B08AA04200D90446706AFEF7C0FD27
:10844000FDB1012D2ED0052D39D00020FEF7F2FA16
:10845000FEF7CEFEFEF7EEFEFEF7E0FF308DC0F336
:108460000B00FFF727F82846FFF748F90021FF2205
:10847000084606F003FA1748008BBDE8F04106F005
:10848000F1B9706BFEF7D6FA3888204301D1308DF0
:1084900028B1706A002802DDFEF736FEDAE7FEF743
:1084A000A7FED7E7FEF7B0FA708928B1706A0028F6
:1084B00002DDFEF729FECDE7FEF79AFECAE70020AF
:1084C000FEF77EFDFEF790FFC4E70000D803002012
:1084D000C0020020D601002038B504466420FEF713
:1084E00021FA04F067FEEB210020FFF709F920488C
:1084F00020A241680091036840F231119B2006F0F0
:1085000047F900234FF48B720A211C4805F0C8FB81
:108510000020FEF78FFA0020FEF752FDB4B1012CC7
:1085200021D0FEF765FEFEF785FE2046FFF7E6F850
:108530003220FEF731FE0021FF22084606F09EF9A8
:108540000F48008BBDE8384006F08CB90D48008D0F
:10855000C0F30B00FEF7AEFFFEF74AFEFEF76AFE21
:10856000FEF75CFFE1E7FEF743FEFEF763FEDCE7A4
:108570001C02002042542020202020004C29010809
:10858000D6010020D803002001B5074A41F2941318
:10859000936004E09068411E9160FBD29360009864
:1085A000411E0091F6D208BD1400002004480121AC
:1085B00001600021021D116003210160002070474D
:1085C000405C00400CB500220192009232480168E4
:1085D00041F0010101604168304B19404160016880
:1085E0002F4B19400160016821F48021016041682E
:1085F00021F4FE0141604FF41F018160016841F4E4
:10860000803101604FF4A063016801F400310091F2
:108610000199491C0191009911B901999942F3D12D
:108620000168890302D50121009100E000920099C0
:10863000012930D11B490A6842F010020A600A6819
:1086400022F003020A600A6842F002020A604168EE
:10865000416041684160416841F480614160416826
:1086600021F47C114160416841F4E81141600168E6
:1086700041F08071016001688901FCD5416821F0F9
:1086800003014160416841F0020141604168C1F36A
:1086900081010229FAD10CBD001002400000FFF850
:1086A000FFFFF6FE00200240704770474FF4405134
:1086B0004FF0006000F03CB870B50F23C27801267F
:1086C0000178002A1ED0144A126802F4E062C2F552
:1086D000E062120AC2F10404D3404578A5408278D2
:1086E0001A402A43120101F1E02181F800240078A8
:1086F00000F01F018E404009800000F1E020C0F82A
:10870000006170BD01F01F0086404809800000F143
:10871000E020C0F8806170BD0CED00E00249084324
:1087200002490860704700000000FA050CED00E007
:10873000024A1140014302480160704780FFFF1F59
:1087400008ED00E0BFF34F8F04480168044A01F4CC
:10875000E06111430160BFF34F8FFEE70CED00E0D5
:108760000400FA0570B50220314D29684C780A786A
:10877000530606D002F07F0101292ED0022931D004
:108780003AE0092C06D0052C07D0032C12D0012C7E
:1087900018D031E002F038F92EE0C8787F2805D8EB
:1087A000887818B9888808B9887A08B108203CE028
:1087B000002021E0CA78012A1ED18988E1B902F09F
:1087C0003FF919E0CA78012A16D18A88A2B9497AF4
:1087D000890611D501F0FAFF0EE00B2C0CD102F046
:1087E0008BF909E0012C02D0032C03D004E001F046
:1087F000EDFF01E002F036F930B10E49E0B2096850
:1088000049698847032802D018B108200DE00920E3
:108810000BE00620084900220968084B89B2891C30
:1088200043F81120064A302111802968087270BD72
:108830004C01002050010020505C004000600040CE
:108840005C01002010B5104C2068007A02280ED080
:1088500004280CD003280CD005280AD007280DD0F6
:10886000082021680872BDE8104000F089B908208E
:10887000F7E7FDF79DFE2068007AF2E703480068FD
:10888000C06880470820ECE74C0100205001002020
:10889000521C5208064B03EB4101002A06D031F866
:1088A000043B20F8023B521E002AF8D1704700001A
:1088B00000600040F0B4174C174E94F83350002D70
:1088C00002D0012D0ED01BE06080A080E0802081CE
:1088D0006081A081E18121826182A18222850620BE
:1088E00030800DE000216180A180E18021816081E4
:1088F000A181E18121826182A182218502203080D3
:108900006362064901200870054908702846F0BCDA
:10891000FFF764BDD8030020D40100202E02002000
:108920002F020020F8B5544841680091036853486D
:108930004B210288DE20FEF74FFE514801680126D8
:10894000002903DD01684F4A116006604E4D002486
:108950006C80AC80EC802C816C81AC81EC812C82B1
:108960006C82AC822C856C6200F0AEF900F0BCF930
:1089700000F086FF0A20FDF7D5FF4FF480714348D1
:10898000FFF7F9F900214FF40020FDF707FC0A205A
:10899000FDF7C8FF00214FF41020FDF7FFFB0A2070
:1089A000FDF7C0FF00214FF42020FDF7F7FB0A2060
:1089B000FDF7B8FF00214FF43020FDF7EFFB0A2050
:1089C000FDF7B0FF00214FF44020FDF7E7FB0A2040
:1089D000FDF7A8FF00214FF45020FDF7DFFB0A2030
:1089E000FDF7A0FF00214FF46020FDF7D7FB0A2020
:1089F000FDF798FF0021084600F0E4FF0A20FDF78C
:108A000091FF0021012000F0DDFF0A20FDF78AFF21
:108A10000021022000F0D6FF0A20FDF783FF00218D
:108A2000032000F0CFFF0A20FDF77CFFFEF702FCD9
:108A3000002001F057FD16480460164804701648DF
:108A40000480042085F83300FFF7C8FC13488460D5
:108A50000020FEF707FB12490878072801D00928F3
:108A600000D10E700F480278072A02D00978092930
:108A700000D10670F8BD000014020020060200209C
:108A80007C01002080010020D8030020000C014060
:108A9000A40100208C020020D4010020AC010020A1
:108AA0002E0200202F02002070B504460D46002043
:108AB000FBF786FDFFF736FF0C4880F83340052CA6
:108AC00007D1FEF777FC25B101F012FA0020FEF77E
:108AD0003BFA074900200870002D06D0BDE8704021
